:1000000000000120B5020000DD020000DF02000058
:10001000E1020000E3020000E50200000000000031
:10002000000000000000000000000000E7020000E7
:10003000E902000000000000EB020000ED020000F9
:10004000EF020000EF020000EF020000EF020000EC
:10005000EF020000EF020000EF020000EF020000DC
:10006000EF020000EF020000EF020000EF020000CC
:10007000EF020000EF020000EF020000EF020000BC
:10008000EF020000EF020000EF020000EF020000AC
:10009000EF020000EF020000EF020000EF0200009C
:1000A000EF020000EF020000EF020000EF0200008C
:1000B000EF020000EF02000000000000000000005E
:1000C000EF020000EF020000EF020000EF0200006C
:1000D000EF020000EF020000EF020000000000004D
:1000E0000000000000000000000000000000000010
:1000F0000000000000000000000000000000000000
:1001000000000000000000000000000000000000EF
:1001100000000000000000000000000000000000DF
:1001200000000000000000000000000000000000CF
:1001300000000000000000000000000000000000BF
:1001400000000000000000000000000000000000AF
:10015000000000000000000000000000000000009F
:10016000000000000000000000000000000000008F
:10017000000000000000000000000000000000007F
:10018000000000000000000000000000000000006F
:10019000000000000000000000000000000000005F
:1001A000000000000000000000000000000000004F
:1001B000000000000000000000000000000000003F
:1001C000000000000000000000000000000000002F
:1001D000000000000000000000000000000000001F
:1001E000000000000000000000000000000000000F
:1001F00000000000000000000000000000000000FF
:1002000010B5054C237833B9044B13B10448AFF350
:1002100000800123237010BD6C000020000000004E
:100220008C07000008B5034B1BB103490348AFF32B
:10023000008008BD00000000700000208C07000056
:10024000154B002B08BF134B9D46A3F5803A0021A8
:100250008B460F461348144A121A00F079FA0F4BD6
:10026000002B00D098470E4B002B00D09847002061
:10027000002104000D000D48002802D00C48AFF307
:10028000008000F041FA2000290000F071F800F031
:1002900027FA00BF00000800000001200000000055
:1002A000000000006C00002088000020000000001A
:1002B000000000000649074A074B9B1A03DD043B78
:1002C000C858D050FBDC00F06BF8FFF7B9FF000016
:1002D00098070000000000206C000020FEE7FEE709
:1002E000FEE7FEE7FEE7FEE7FEE7FEE7FEE7FEE7E6
:1002F000074B4FF0A041185CD1F804350122824031
:1003000022EA03001340C1F80805C1F80C35704714
:100310007C070000C20730B41AD54FF0A043032277
:10032000C3F844274FF40035C3F848274FF480241E
:10033000C3F84C274FF40021C3F850274FF4801224
:10034000C3F80855C3F80845C3F80815C3F80825CD
:1003500083070AD54FF0A0430C22C3F83427C3F813
:100360003827C3F83C27C3F8402730BC704700BF8C
:1003700070B50120094DFFF7CDFF45F001050026BE
:100380003046FFF7B5FF4FF4FA744FF47A40A847B0
:10039000013CFAD10136042EF2D1F0E780070000CB
:1003A00030B4B64B1B68591C04BFB54B1B78062BE9
:1003B00005D1B44BB44A1B68C3F304231360B04B9C
:1003C0001B78062B00F0FB80AC4B1B685A1C04BF4B
:1003D000AB4B1B78062B05D1AC4BAD4A1B68C3F366
:1003E00042331360A64B1B78062B00F0DB80A34B37
:1003F0001B685D1C04BFA24B1B78062B08D14FF075
:1004000080430022C3F80C21C3F81021C3F838251B
:100410009B4B1B78062B00F0AF80984B1A68541C3E
:1004200024D09C4B062A1B6828D09B4AD2F88830DF
:1004300043F47003C2F88830BFF34F8FBFF36F8F60
:100440008E4B1B68062B00F088804FF01023D3F8EA
:100450000022002AC0F2E080D3F80432002BC0F260
:10046000DB808E4B8E4A1A6030BC704784498D4BBE
:1004700009781B680629D8D1C3F30313033B012B6A
:1004800048D94FF08052884BD2F80414C3F8201595
:10049000D2F80814C3F82415D2F80C14C3F82815A0
:1004A000D2F81014C3F82C15D2F81414C3F8301570
:1004B000D2F81814C3F83415D2F81C14C3F8401538
:1004C000D2F82014C3F84415D2F82414C3F8481500
:1004D000D2F82814C3F84C15D2F82C14C3F85015D0
:1004E000D2F83014C3F85415D2F83414C3F8601598
:1004F000D2F83814C3F86415D2F83C14C3F8681560
:10050000D2F840145D48C3F86C15D2F84414026860
:10051000C3F87015501C7AD0062A86D1634B574A0F
:100520001B686349126803F04F030B60511C51D0E4
:10053000062A7FF47AAF4FF08043D3F80034DA070D
:1005400054D4544B1B68033B022B7FF66EAF594AC1
:10055000136843F48063136067E74E4B1B68033BEB
:10056000032B7FF672AF4FF010224FF08043D2F88A
:100570000822C3F8582568E74A4B1B68C3F30313E6
:10058000032B7FF44AAF4C4D4C482B604C4C4D49EB
:100590004D4A05230360012500203F2325600860A4
:1005A00013603AE73F4B1B68C3F30313032B7FF43D
:1005B0001EAF464AD36823F08073D36017E7394BE8
:1005C0001B68C3F30313032B7FF4FEAE404B414A79
:1005D0001A60F9E62A4B1B78062B7FF426AF4FF002
:1005E0008043D3F80034DB077FF51FAF234B1B6834
:1005F0004FF080426FF00101062BC2F800147FF427
:1006000014AF244B1B68033B022BA0D80DE71C4BF7
:100610001B78062B82D008E72F4A0123C2F8043545
:10062000D2F80034002BFBD04FF0102315212A4ABA
:10063000C3F80012D2F80034002BFBD04FF0102387
:100640001521254AC3F80412D2F80034002BFBD040
:1006500000232149C2F80435D1F80034002BFBD027
:10066000BFF34F8F0C491D4BCA6802F4E06213437D
:10067000CB60BFF34F8F00BFFDE700BF300100101C
:10068000E00F00F024030010403501404402001048
:100690003C0500403401001000ED00E000000020A7
:1006A0000090D003E80F00F000C000405802001096
:1006B000E40E00403C170040A005004010560040EA
:1006C000885600401856004014560040F0ED00E0F7
:1006D00074C007400DF0ADBA00E001400400FA0517
:1006E00008B5074B044613B10021AFF30080054B5A
:1006F0001868836A03B19847204600F031F800BFBC
:10070000000000008807000070B50D4D0D4C641B03
:10071000A4100026A64209D10B4D0C4C00F022F883
:10072000641BA4100026A64205D170BD55F8043BF9
:1007300098470136EEE755F8043B98470136F2E753
:100740006400002064000020640000206800002095
:1007500002440346934200D1704703F8011BF9E7B6
:10076000FEE700BFF8B500BFF8BC08BC9E46704766
:10077000F8B500BFF8BC08BC9E46704711121314B0
:100780000338FDD87047000004000020000000007E
:08079000B0FAFF7F0100000038
:100798000090D003000000000000000000000000EE
:1007A8000000000000000000000000000000000041
:1007B8000000000000000000000000000000000031
:1007C8000000000000000000000000000000000021
:1007D8000000000000000000000000000000000011
:1007E8000000000000000000000000000000000001
:0C07F800000000002502000001020000CB
:04000003000002B542
:00000001FF
