:1000000000000120B5020000DD020000D55900000B
:10001000E1020000E3020000E50200000000000031
:10002000000000000000000000000000E7020000E7
:10003000E902000000000000EB020000ED020000F9
:10004000C1C80000EF020000D1C80000EF020000AC
:10005000EF020000EF020000A1C10000EF0200006B
:10006000EF020000EF020000EF020000EF020000CC
:10007000EF020000EF020000EF020000EF020000BC
:10008000EF02000069420000EF020000EF020000F2
:10009000EF020000EF020000EF020000EF0200009C
:1000A000EF020000EF020000EF020000EF0200008C
:1000B000EF020000EF02000000000000000000005E
:1000C000EF020000EF020000EF020000EF0200006C
:1000D000EF020000EF020000EF020000000000004D
:1000E0000000000000000000000000000000000010
:1000F0000000000000000000000000000000000000
:1001000000000000000000000000000000000000EF
:1001100000000000000000000000000000000000DF
:1001200000000000000000000000000000000000CF
:1001300000000000000000000000000000000000BF
:1001400000000000000000000000000000000000AF
:10015000000000000000000000000000000000009F
:10016000000000000000000000000000000000008F
:10017000000000000000000000000000000000007F
:10018000000000000000000000000000000000006F
:10019000000000000000000000000000000000005F
:1001A000000000000000000000000000000000004F
:1001B000000000000000000000000000000000003F
:1001C000000000000000000000000000000000002F
:1001D000000000000000000000000000000000001F
:1001E000000000000000000000000000000000000F
:1001F00000000000000000000000000000000000FF
:1002000010B5054C237833B9044B13B10448AFF350
:1002100000800123237010BD18030020000000009F
:100220005445010008B5034B1BB103490348AFF324
:10023000008008BD000000001C03002054450100A0
:10024000154B002B08BF134B9D46A3F5803A0021A8
:100250008B460F461348144A121A0EF0AFFD0F4B8F
:10026000002B00D098470E4B002B00D09847002061
:10027000002104000D000D48002802D00C48AFF307
:1002800000800EF04FFD200029000EF0C5F80EF0A2
:1002900035FD00BF00000800000001200000000044
:1002A00000000000180300207C1D0020000000005A
:1002B000000000000649074A074B9B1A03DD043B78
:1002C000C858D050FBDC0EF079FBFFF7B9FF0000F7
:1002D0000C4801000000002018030020FEE7FEE7A4
:1002E000FEE7FEE7FEE7FEE7FEE7FEE7FEE7FEE7E6
:1002F000704700BF00B583B0002201A908480BF089
:1003000097FA10B103B05DF804FB064A0198136830
:10031000013313600BF01CF903B05DF804FB00BF60
:10032000F0450100B003002038B58368D3F854339A
:100330009B0710D40A4C0B4D0B4824F47F64012317
:1003400024F00F041A462B70214600230AF00CFFFC
:10035000064B1C6038BD0022114609F097F9E9E709
:100360000B58010024040020EC010020A803002009
:1003700070B58368D3F854339B0782B005462AD4FE
:10038000174C184A24F47F6428464FF480560821FD
:1003900024F00F0407F064F923462846124A009619
:1003A000082107F05DF9114B01961B68104A1C1BD0
:1003B000642303FB04F3284600941B0B082107F079
:1003C0004FF90C4B0C4A1B682846082102B0BDE8C7
:1003D000704007F045B90022114609F057F9CFE700
:1003E0000B580100280701003C070100A80300206A
:1003F0006C070100B00300209C07010000238B5410
:100400000A460068194607F02BB900BF2DE9F047EE
:10041000414E424D86B00746884606F10C0900223F
:1004200002A938460BF004FA044600286ED1DDF824
:1004300008A003944FF0400C2346504603A90C2219
:10044000C5F800C0CDE904440BF0C2F803A90C22A2
:1004500030460EF08BFC9DF80C3003F00303012BAB
:1004600006D0022B3AD02C6002980BF071F8D6E738
:10047000BDF80C40C4F38314A4000C23224650465C
:1004800049460BF0A5F82B680C34A342ECD3DFF8F7
:10049000A4A0029BDAF800102148009332462346BC
:1004A0002C600AF09BFD60B9B8F1000F31D0DAF88A
:1004B00000302A6802981344CAF800300BF048F85C
:1004C000ADE7B8F1000F01D1042818D010280FD0E3
:1004D00014494FF49F7005F059FBA0E7BDF80E409A
:1004E000A409342C28BF3424033424F00304C4E7C3
:1004F00002980BF02DF80C4B01221A708FE702982E
:100500000BF026F8094A136801331360084805F018
:100510004BFC06B0BDE8F087B4030020AC0300201C
:10052000EC010020B407010024040020B0030020E7
:1005300074030020A8030020184A13781BB903781D
:10054000012B10D07047012BFCD10378022BF9D17D
:10055000134B816823F47F6323F00F039942F1D199
:1005600000231370704770B54168044651B10D4ABD
:10057000136801331360606918B1BDE870400AF078
:10058000E7BF70BD084A094D13682E680848296006
:1005900033441360FFF73AFFEDE700BF2404002067
:1005A0000B580100B0030020A8030020AC0300207A
:1005B0000C46010030B5164B1C7883B00CB103B06B
:1005C00030BD0D4608460AF0BFFF0095114D694643
:1005D00028460BF0A1F8002201A948B128460BF0EB
:1005E00027F90028F3D101980AF0B2FF0134EEE7B1
:1005F000094A0A4813681C44146005F0B1FB00283E
:10060000DDD101460348FFF701FF03B030BD00BF55
:10061000240400200C460100B003002074030020D5
:1006200070B5002286B01E491E480AF09FFC20B11A
:100630001D4B01221A7006B070BD1B4A1B4B0221D4
:10064000012611700446C3F88460BFF34F8FBFF3D7
:100650006F8F1748174D3146FFF7D8FE04F0C403DB
:1006600043F0290303948DF80C30039B124A13487E
:10067000009462F39F230393024629680360C0E954
:1006800001440C2307480AF0A9FC2B680C480C33E2
:1006900031462B6006B0BDE87040FFF7B7BE00BF23
:1006A000E42B0100EC0100202404002000E100E024
:1006B0000C460100A8030020F0060100B40300204E
:1006C000F045010000B583B0002201A908480BF0F5
:1006D000AFF810B103B05DF804FB064A0198136847
:1006E000013313600AF034FF03B05DF804FB00BF70
:1006F0000C460100B003002030B5134D2B78012BC0
:1007000083B001D103B030BD0C4608460AF01CFF8F
:1007100000940E4C694620460AF0FEFF002201A913
:1007200040B120460BF084F80028F3D101980AF07C
:100730000FFFEFE72B78022BE4D101210348FFF7ED
:1007400065FE03B030BD00BF24040020F045010069
:10075000F0B58368D3F854339B0787B006465ED460
:10076000354D25F47F6525F00F0500240127002C69
:1007700008BF2C46214631480AF08AFD60B3227832
:1007800002F00302012A234604F10C0027D0022ABA
:1007900022D16488A409342C28BF3424033424F0E3
:1007A00003040022ADF81620CDF81220244A9988BF
:1007B0009F68ADF81010039716601A7802F00301D5
:1007C000012904441BD002290ED01E4940F29E206C
:1007D00005F0DCF90027CAE737BB07B0F0BD248875
:1007E000C4F38314A400DCE7C2F3C2028DF8142022
:1007F0005988154B890903AA02F084FBEAE7C2F382
:10080000C2028DF814201A881B680F490091C2F3A8
:1008100083120146980A03AB02F0FEFADAE70022DF
:10082000114608F033FF9BE73046084A022106F0E4
:1008300017FF07B0F0BD00BF0B580100EC0100200E
:1008400028040020B4070100000000201407010064
:10085000F8B51B4D1B4E25F47F6525F00F050146AD
:1008600005F6FF7330460022C6E903530AF07EFB0B
:10087000074688B92C46214630460AF009FD30B1BA
:10088000237803F00303012B15D0022B06D00E4A68
:100890000E4B146000221A703846F8BD63889B091D
:1008A000342B28BF3423033323F003030C34E41820
:1008B00008BF2C46DFE72388C3F383139B00F5E7CB
:1008C0000B580100EC010020A803002024040020A4
:1008D000F0B595B0084600240F4615461E460AF0AE
:1008E00033FE1A990D91384623460C2205A9089526
:1008F00009960A948DF82C400C940AF069FEDDE903
:1009000006029DF814300292012103F003028A428C
:1009100003908DF8111027D0022A04D038460AF02F
:1009200017FE15B0F0BDBDF81650C3F3C2038DF825
:100930001030AD090C26082D2C4628BF082433465C
:1009400022460EA938460AF043FE2D1B214608AB6D
:1009500002AA0EA8264402F0D5FA002DEBD13846A3
:100960000AF0F6FD15B0F0BDBDF81460059DC6F3A4
:100970008316C3F3C204B2000EA938460C238DF8C7
:100980001040C5F395250AF023FE08AB32462846F1
:100990000EA9009302AB02F03FFA38460AF0D8FDE8
:1009A00015B0F0BD704700BF00B583B0044B009395
:1009B000044A4023FFF78CFF03B05DF804FB00BF3F
:1009C000C90900003004002038B50F480F4D0378E6
:1009D0000F4CEB5C0025D2B2257053B104300CF003
:1009E00017FF58B90B4B1B7813B12378002BFCD0A1
:1009F00038BD0C300CF0A2FA0028F3D0064A53217F
:100A000002F00EFCEEE700BF18000020EC1C0020F6
:100A1000700400202C0400208009010030B5154826
:100A2000154A0378D35C89B0BBB104300CF012FED8
:100A3000124D0FCD6C460FC495E80F00062584E8D3
:100A40000F00002269460B4800950BF085FA40B96B
:100A50000B4B00221A7009B030BD0C300CF0BEF9FF
:100A6000E6E7084A432102F0DBFB054B00221A703F
:100A700009B030BD18000020EC1C00205409010012
:100A80002C04002080090100064B8B6004284FF0E5
:100A90000003CB604B609CBF034B53F820300B60CE
:100AA000704700BF3C0C0100600C0100C368DB68AC
:100AB00000225A71704700BFC368DB6801225A7177
:100AC000704700BF30B40E4B0E4D0F4CED1A002294
:100AD0002D09C1E90242C1E900220BD003EB051543
:100AE000DC682479FF2C02D0904205D0013210330B
:100AF000AB42F5D130BC70479B680B6030BC70478F
:100B000060470100B0470100740C01000129034651
:100B100004D08168D1F85413890704D500221846FF
:100B2000114608F0B3BD00B583B053680193054981
:100B300013680091044A022106F092FD03B05DF8AB
:100B400004FB00BF000A0100F40901008368D3F828
:100B500054339B0733D42DE9F0471B4C1B4E361BF7
:100B6000360982B028D00746DFF868A0DFF8689021
:100B7000DFF8688004EB06160CE06D79CDF804C050
:100B8000002D14BF55464D460095103406F068FD03
:100B9000A64211D0D4E902E595F804C0BCF1FF0FDC
:100BA000734642464FF008013846E6D1084A1034F1
:100BB00006F056FDA642EDD102B0BDE8F087002256
:100BC000114608F063BD00BF60470100B047010057
:100BD0002C0A0100180A0100200A01004C0A010039
:100BE0002DE9F0410F49104D52F8046C4A1B1209CF
:100BF00007460FD005EB021402E01035A54209D0DC
:100C0000A96830460EF093FA0028F6D1EB685871C7
:100C1000BDE8F08133463846044A0221BDE8F04180
:100C200006F01EBDB047010060470100DC0901006D
:100C30002DE9F0411049114D52F8046C4A1B12097C
:100C4000074610D005EB021402E01035A5420AD089
:100C5000A96830460EF06BFA0028F6D1EB68012245
:100C60005A71BDE8F08133463846054A0221BDE895
:100C7000F04106F0F5BC00BFB0470100604701003D
:100C8000DC0901002DE9F04FD0F80C90384CD9F870
:100C90000C30384F5B79E41B87B00646E408002B24
:100CA00061D0354A354B0821304606F0D9FC344A2C
:100CB0000821304606F0D4FCACB3A300DFF8D8809E
:100CC000DFF8D8B0DFF8D8A005930025002338F866
:100CD0000320AA422DD0059A04339A42F7D15146F7
:100CE000002338F82320AA4232D001339C42F8D1A5
:100CF000002294465046002338F823E0AE4515D034
:100D000001339C42F8D1002394458CBF1D4A1E4AF2
:100D10000292CDE9001001351C4A0821304606F048
:100D20009FFCAC42D2D107B0BDE8F08F57F833300A
:100D3000EAE7D9F80C2016491279595802EB420219
:100D4000072393400B40D340DBB25BF82310C7E787
:100D500007EBC30393F806C06246042A28BF0422A7
:100D60005BF82200C7E70B4A022106F079FC98E7FE
:100D70006047010060460100AC0B0100A00B0100C0
:100D8000CC0B0100240C0100543B01000C0C0100B1
:100D9000940200208C0B0100140200204C0C010076
:100DA000840B010070B4114B114C124D1B1B00221F
:100DB000DB08C1E902524A600CD00F4D2E88B042C8
:100DC00004D110E035F82260B04206D001329342DF
:100DD000F8D100230B6070BC704704EBC2021368AB
:100DE0000B6070BC70472246F9E700BF6047010006
:100DF000604601003C0C01001402002002B970475B
:100E00002DE9F04F9A46CB68804993F804B085B03D
:100E1000144606460722DAF800000EF0A2F9002870
:100E20006ED1012C00F0E680794F05460A2257F872
:100E3000041BDAF804000EF094F960B10135052DB9
:100E4000F4D1DAF80430734A3046022105B0BDE827
:100E5000F04F06F005BCEBB2022C019340F0C880C5
:100E60006D4C6E4BA3EB04095FEAD90945D00BEB3F
:100E70004B0B072305FA0BF503FA0BFBCDF808B073
:100E8000674FDFF8AC81DFF8A0A1DDF804B004EB18
:100E9000C90909E02368083406F0E2FBA14507F11F
:100EA000040708F1040828D0A3795B4552464FF0A7
:100EB00002013046EED33A68029982EA05030B40FC
:100EC0005340C3F3C202C3F382118A4238BF0A46B9
:100ED00003F007018A4238BF0A46C3F342218A421F
:100EE00004F1080438BF0A46A1453B60A8F8022077
:100EF00007F1040708F10408D6D105B0BDE8F08F6A
:100F000008224849DAF800000EF02BF9002879D1C0
:100F1000012C05460190A3D00127BC42EDD93F4BDF
:100F2000DFF8F4900BEB4B0BA3EB090807F18047BC
:100F300005FA0BF3013F0393072303FA0BF34FEA80
:100F4000D8080AEB8707AAF1040A0AEB8405029382
:100F50004346A8461D4657F804BF0DB3002402E0DF
:100F60000134A5421AD02022594659F8340009EB21
:100F7000C40A0EF0F6F80028F2D19AF80630019A69
:100F8000934214D2DAF80030274A0221304606F0A4
:100F900067FBB845DFD105B0BDE8F08FD7F800B0EA
:100FA000224A5B460221304606F05AFBF1E71C4B11
:100FB000029853F82420039B1D495340034053409B
:100FC000C3F3C202C3F38210824238BF024603F069
:100FD0000700824238BF0246C3F34220824238BF34
:100FE000024601EB84010E484A8040F82430D0E7E5
:100FF000022792E70F4A3046022105B0BDE8F04FC4
:1010000006F02EBBDAF800300B4A1DE7EC0A0100AF
:101010004C0C0100640B01006046010060470100B8
:10102000940200200C0B01002C0B0100500B01005E
:1010300014020020F40A0100140B010013460A46B2
:10104000C168FFF7DBBE00BF2DE9F047124D134C1E
:1010500052F8047C641B2409804615D01646894644
:1010600005EB041402E01035A5420DD0A9683846FE
:101070000EF05DF80028F6D133464A462946404630
:10108000BDE8F047FFF7BABE3B464046044A02219E
:10109000BDE8F04706F0E4BA60470100B047010040
:1010A000DC0901002DE9F04F5049514E52F8045C23
:1010B0008A1B120987B0074600F0888006EB0214ED
:1010C00003E01036B44200F08180B16828460EF08B
:1010D0002EF80028F5D1F368464DDFF840915B7992
:1010E000A5EB0905ED08002B79D0434A434B0821B5
:1010F000384606F0B5FA424A0821384606F0B0FAFA
:10110000ADB3AB00DFF81881DFF818B1DFF818A134
:1011100005930024002338F8032094423DD0059A1B
:1011200004339A42F7D15146002338F82320A242D3
:1011300041D001339D42F8D100229446504600230D
:1011400038F823E0744515D001339D42F8D1944519
:101150004FF0000312D92B4A0292CDE9001001345E
:10116000294A0821384606F07BFAAC42D2D107B0B2
:10117000BDE8F08F944559F83330ECD8234A0292F9
:10118000CDE900100134204A0821384606F068FAFB
:10119000A542BFD107B0BDE8F08FF2681C491279B3
:1011A000595802EB4202072393400B40D340DBB275
:1011B0005BF82310B8E709EBC30393F806C0624657
:1011C000042A28BF04225BF82200B8E7114A2B4604
:1011D0003846022107B0BDE8F04F06F041BA0E4A8A
:1011E0000221384606F03CFA7FE700BFB047010015
:1011F0006047010060470100AC0B0100A00B01003B
:10120000CC0B0100240C01000C0C0100543B01002C
:1012100094020020DC0901008C0B010060460100F3
:10122000140200204C0C0100840B01002DE9F84F42
:10123000002800F0C080634D0023044608462B7050
:1012400001F0DEFE6048C5F80C440AF011F983464F
:1012500010B15846BDE8F88FDFF87C815B4E5C48E2
:10126000A6EB08060AF080FBF608F2D0DFF86CA1C6
:101270005D4600273C4608EBC509A5424FF0140225
:1012800008D058F83410D9F800000DF06AFF002893
:10129000C8BF01370134A642EFD12AF825700135C5
:1012A000AE42E6D14B4D731E092BC5F3800440F2CC
:1012B00087801CB10023AAF802302B60A200371BE4
:1012C000931C4FEA970E53440EF1010E103203EBBC
:1012D0000E1E2A4410334FF0000C0020002123F88A
:1012E00010CC23F80CCC23F808CC23F804CC103312
:1012F000734542E9040142E9020102F11002EED114
:1013000027F003039F421C44A3D00AEB8402611C14
:1013100000238E42538045F824309AD90AEB81008D
:10132000A21C964245F82130438092D90AEB8201F3
:1013300045F82230E21C96424B808AD90AEB8201A2
:1013400045F82230221D96424B8082D90AEB820159
:1013500045F82230621D96424B807FF67AAF0AEB49
:10136000820145F82230A21D96424B807FF671AF74
:101370000AEB820145F82230E21D96424B807FF64F
:1013800068AF0AEB820145F8223004F10802964268
:101390004B807FF65EAF0AEB82010934A64245F826
:1013A00022304B807FF655AF0AEB840A45F8243093
:1013B000AAF802304DE74FF0070B5846BDE8F88F0A
:1013C0000024A2E70C060020B0470100604701009E
:1013D000300C01009402002060460100140200203D
:1013E000A9B1124B12495B1ADB081AD030B4114C68
:1013F0002288824217D0002203E034F8225085422E
:101400000AD001329342F8D1002030BC7047084A1C
:1014100002EBC0021068704701EBC202106830BCDA
:101420007047184670470A46F8E700BF604701005A
:101430006046010014020020094B013903EBC00093
:1014400003290BD8DFE801F00208060402207047E8
:10145000407970470079704704207047002070473A
:1014600060460100704700BF2DE9F04FC44CD4E93D
:1014700001239A4289B061D00023C4F81834BFF325
:101480004F8FA368D9B2CA1C04EB820514F822203E
:10149000500718D566682A7802F00302012A43D063
:1014A000022A03D16A88033303EB9213D9B2D4F82A
:1014B0001804CA1C04EB820528B99E423AD914F8D4
:1014C00022205207E7D404EB8101581C9A1CC0B2B9
:1014D000D2B2CD68029504EB800104EB820205F0E4
:1014E0000305C968D268022DCDE9031203F103098F
:1014F00028D0012D00F08D81D4F810543DB12B6817
:1015000028469B689847EB681D68002DF7D19D4BD6
:101510005B88012B00F28C80D4E90130C01A18BF1F
:10152000012009B0BDE8F08F2A880333C2F383128B
:101530001344BBE7A66009B0BDE8F08F002009B0F6
:10154000BDE8F08FBDF80A308F489DF808604FEA7B
:10155000931A5746A02F28BFA02767F38F1307F1D0
:101560000C01ADF80A3009F085FFC6F3C2068046CB
:101570000028C1D06FEA0905EDB209F0E5FF013599
:10158000002302A90C2240460AF00EF8AD005FFAD3
:1015900089F30333AF4204EB830140F274817F1B74
:1015A0000C232A464046FFB209F0FEFF3A4605F1F9
:1015B0000C037649404609F0F7FF0AF1030709EBEF
:1015C0009707D4F81834002B40F06381D4F81054F6
:1015D00005B3DFF8D0A14FF00709EB685A79B2B133
:1015E0001A79BDF80C0002EB42015AF8200009FA02
:1015F00001F2052E02EA000208BF0326CA40964205
:1016000005D82B6841461B6828469847EB681D683B
:10161000002DE2D1404609F09BFF002002F0D2FAF3
:10162000D4F8183403B9A760002002F0E5FA73E794
:10163000574BDFF874A1A3EB0A084FEAD803002048
:10164000019302F0BFFAD4E9012303F580739B1ADA
:10165000022B009255D84F4DA5F10409A5F10806BB
:101660000121284604F064FB484604F085FB30461F
:1016700004F082FBA368D9B2C81C04EB800214F802
:1016800020C01CF0040700F0AE8003F1030E1078B8
:1016900000F003000128F34600F09180022800F0DA
:1016A0009E80CA1C04EB8202002FF0D104EB810162
:1016B0000133CA680592DBB204EB830302F0030234
:1016C000012AD96800F09D80022A00F091803249F9
:1016D0004FF4C27004F05AFA4FF00008304604F09C
:1016E00057FB4146002800F081802846C4F808B026
:1016F00004F01EFBD4E9012303F580739B1A022B2F
:10170000AED9D3B2033303320521002044F82310AD
:10171000626002F071FA00211E4804F0DBFA80F3E7
:1017200010051E4BBDF80480A3EB0A0AB8EBDA0FD4
:1017300080F0B380009ED4F80C34721CD2B204EB5B
:10174000820248EA0545D5609847B31CDBB204EB3A
:101750008303F7B20337D86054F82720104B63F3A4
:101760009F2222F47F7323F0030343F0110344F814
:10177000272024F827302378C3B9FFF773FECBE680
:101780000C06002028020020B047010018060020A7
:1017900088460100280A0020600E01006047010011
:1017A0004C0E01009402002060460100FFF75CFE31
:1017B0000028E2D0FFF758FE0028F7D1DDE71388B4
:1017C000C3F383137344D9B2CA1C03F1030E14F894
:1017D00022C0F34604EB82020CF0040764E753884E
:1017E0000EEB9313EFE703F1030B5FE728467FE768
:1017F000BDF816309B0903334FEA11480BEB930BEE
:101800006CE7BDF81430C3F383134FEA11489B44CF
:1018100064E7BDF808602548C6F38313062B28BF8C
:101820000623D91C63F389168900ADF8086009F016
:1018300021FEC6F3C206804600283FF45DAE09F0E3
:1018400083FE00230C2202A9404609F0ADFEBDF83C
:10185000083013F4707F26D000255FFA89F1AB00C1
:1018600003310C3304EB81010422404609F09CFE55
:10187000BDF808300135C3F3831309F10107AB420A
:10188000B946EAD89DE63A460C23404609F08CFE5C
:1018900093E6404609F05CFE3EE6054940F2A91099
:1018A00004F074F946E74F468BE600BFB0470100ED
:1018B000600E01002DE9F04F754C89B007460020FD
:1018C000CDE90223894602F07DF9D4E9015303F5FD
:1018D00080735B1B042B00F2D98004F21C4604F5D4
:1018E000836A04F214480121304604F021FA50467C
:1018F00004F042FA404604F03FFAA368D8B2C21C92
:1019000004EB820114F8222012F0040200F0B580EA
:1019100003F1030C91F800E00EF0030EBEF1010F8D
:10192000E34600F0A580BEF1020F00F1030E00F0C7
:10193000908004EB8E01002AECD104EB800001338F
:10194000C2680592DBB204EB830302F00302012AB2
:10195000D96877D0022A6DD04E494FF4C27004F096
:1019600015F900214046019104F012FA019900286E
:101970005ED03046C4F808B004F0DAF9D4E9013298
:1019800002F58072D21A042AADD9DAB203320533D5
:101990008521002044F82210636002F02DF9EA1C32
:1019A0002B1DD2B204EB8202DBB204EB8303029E56
:1019B000D6600021039A3848DA6004F08BF980F38E
:1019C0001008364B364A3E0C9B1AB6EBD30F57D253
:1019D0006B1CDBB204EB830346EA0846DE60D4F8F6
:1019E0000C349847AB1CDBB204EB8303EDB2033538
:1019F000D86014F8253067F3C50304F8253054F88F
:101A0000252069F39F2222F4717323F0030343F02E
:101A1000810344F8252024F8253023781BB1FFF7F3
:101A200023FD0028FBD1FFF71DFD09B0BDE8F08FB5
:101A30003046A1E7BDF816309B090333090C0BEBC8
:101A4000930B8FE7BDF81430C3F38313090C9B4449
:101A500088E74B880CEB9313D8B2C11C03F1030C3D
:101A600014F82120E34604EB810102F0040262E74E
:101A70000B88C3F383136344EEE703F1030B5CE7C6
:101A8000044940F2A91004F081F8A1E72B467CE755
:101A90000C060020600E0100280A002060470100AB
:101AA000604601002DE9F04F784C89B007460020D0
:101AB000CDE90223894602F085F8D4E9015303F504
:101AC00080735B1B052B00F2DF8004F21C4604F5DB
:101AD000836A04F214480121304604F029F9504683
:101AE00004F04AF9404604F047F9A368D8B2C21C92
:101AF00004EB820114F8222012F0040200F0BB80F3
:101B000003F1030C91F800E00EF0030EBEF1010F9B
:101B1000E34600F0AB80BEF1020F00F1030E00F0CF
:101B2000968004EB8E01002AECD104EB8000013397
:101B3000C2680592DBB204EB830302F00302012AC0
:101B4000D9687DD0022A73D051494FF4C27004F095
:101B50001DF800214046019104F01AF9019900286E
:101B600064D03046C4F808B004F0E2F8D4E9013299
:101B700002F58072D21A052AADD9DAB203320633E1
:101B8000C521002044F82210636002F035F8E81CFB
:101B90002A1DC0B204EB80006B1DD2B2029EC6604B
:101BA00004EB8202DBB204EB8303039ED6600021C8
:101BB000129A3848DA6004F08DF880F31008364B3A
:101BC000364A3E0C9B1AB6EBD30F57D26B1CDBB2D6
:101BD00004EB830346EA0846DE60D4F80C349847E9
:101BE000AB1CDBB204EB8303EDB20335D86014F811
:101BF000253067F3C50304F8253054F8252069F330
:101C00009F2222F4717323F0030343F0C10344F8CD
:101C1000252024F8253023781BB1FFF725FC002868
:101C2000FBD1FFF71FFC09B0BDE8F08F30469BE702
:101C3000BDF816309B090333090C0BEB930B89E7B6
:101C4000BDF81430C3F38313090C9B4482E74B881F
:101C50000CEB9313D8B2C11C03F1030C14F8212030
:101C6000E34604EB810102F004025CE70B88C3F356
:101C700083136344EEE703F1030B56E7044940F294
:101C8000A91003F083FFA1E72B4676E70C0600209E
:101C9000600E0100280A0020604701006046010034
:101CA0002DE9F04F7E4C89B007460020CDE9022394
:101CB000894601F087FFD4E9015303F580735B1B6C
:101CC000062B00F2EA8004F21C4604F5836A04F253
:101CD00014480121304604F02BF8504604F04CF82B
:101CE000404604F049F8A368D8B2C21C04EB820154
:101CF00014F8222012F0040200F0C68003F1030C55
:101D000091F800E00EF0030EBEF1010FE34600F083
:101D1000B680BEF1020F00F1030E00F0A18004EBCB
:101D20008E01002AECD104EB80000133C2680592D9
:101D3000DBB204EB830302F00302012AD96800F04E
:101D40008880022A7DD057494FF4C27003F01EFFED
:101D500000214046019104F01BF8019900286ED043
:101D60003046C4F808B003F0E3FFD4E9013202F5CD
:101D70008072D21A062AACD9DAB20332073340F2A3
:101D80000511002044F822102E1D636001F034FF7D
:101D9000E91C6A1DAB1DC9B2F6B2DBB204EB8101CE
:101DA00004EB8606D2B204EB820204EB830C0298A9
:101DB000039BC860F360129BD3600021139B3A48D9
:101DC000CCF80C3003F086FF80F31008374B384A0C
:101DD0003E0C9B1AB6EBD30F59D26B1CDBB204EB53
:101DE000830346EA0846DE60D4F80C349847AB1CFF
:101DF000DBB204EB8303EDB20335D86014F8253071
:101E000067F3C50304F8253054F8252069F39F22B1
:101E100022F4717323F0030343F4807343F001034E
:101E200044F8252024F8253023781BB1FFF71CFB4C
:101E30000028FBD1FFF716FB09B0BDE8F08F304654
:101E400091E7BDF816309B090333090C0BEB930B9C
:101E50007FE7BDF81430C3F38313090C9B4478E784
:101E60004B880CEB9313D8B2C11C03F1030C14F88C
:101E70002120E34604EB810102F0040251E70B88C4
:101E8000C3F383136344EEE703F1030B4BE7054908
:101E900040F2A91003F07AFE9FE72B466CE700BFE3
:101EA0000C060020600E0100280A00206047010097
:101EB000604601002DE9F04F8BB0CDE90523834C3E
:101EC000149D07951F46159B08938146169B099301
:101ED00000209046019101F075FED4E9015303F50D
:101EE00080735B1B072B00F2EF8004F21C4604F2A8
:101EF000144A0121304603F01BFF754803F03CFFF4
:101F0000504603F039FFA368D8B2C21C04EB82012B
:101F100014F8222012F0040200F0CD8003F1030C2B
:101F200091F800E00EF0030EBEF1010FE34600F061
:101F3000BD80BEF1020F00F1030E00F0A88004EB9B
:101F40008E01002AECD104EB80000133C2680292BA
:101F5000DBB204EB830302F00302012AD96800F02C
:101F60008F80022A00F084805A494FF4C27003F037
:101F70000DFE00215046009103F00AFF0099002851
:101F800074D03046C4F808B003F0D2FED4E9013270
:101F900002F58072D21A072AABD9DAB203320833BB
:101FA00040F24511002044F82210636001F024FE45
:101FB000E91C281D6A1DC9B2C0B204EB810104EB03
:101FC0008000AB1DD2B204EB8202DBB2EE1DC1F881
:101FD0000C8004EB8303C760F6B2149FD76004EB58
:101FE0008606159ADA600021169B3B48F36003F0E1
:101FF00071FE80F31007394B394A4FEA19469B1A94
:10200000B6EBD30F5AD26B1CDBB204EB830346EA68
:102010000746DE60D4F80C349847AB1CDBB204EB07
:102020008303EDB20335D86014F8253069F3C50396
:1020300004F82530019B54F8252063F39F2222F4F5
:10204000717323F0030343F4A07343F0010344F8D6
:10205000252024F8253023781BB1FFF705FA002846
:10206000FBD1FFF7FFF90BB0BDE8F08F30468BE7EF
:10207000BDF80A309B090333090C0BEB930B79E78E
:10208000BDF80830C3F38313090C9B4472E74B88F7
:102090000CEB9313D8B2C11C03F1030C14F82120EC
:1020A000E34604EB810102F004024AE70B88C3F324
:1020B00083136344EEE703F1030B44E7054940F261
:1020C000A91003F063FD9EE72B4666E70C0600208F
:1020D000240A0020600E0100280A00206047010049
:1020E000604601002DE9F04F724C87B00746002092
:1020F0008946019201F066FDD4E9015303F580732E
:102100005B1B032B00F2D38004F21C4604F5836AA8
:1021100004F214480121304603F00AFE504603F051
:102120002BFE404603F028FEA368D8B2C21C04EB85
:10213000820114F8222012F0040200F0AF8003F1B3
:10214000030C91F800E00EF0030EBEF1010FE34620
:1021500000F09F80BEF1020F00F1030E00F08A80B4
:1021600004EB8E01002AECD104EB80000133C2683D
:102170000392DBB204EB830302F00302012AD96865
:1021800071D0022A67D04C494FF4C27003F0FEFCB4
:1021900000214046009103F0FBFD0099002858D033
:1021A0003046C4F808B003F0C3FDD4E9013202F5AB
:1021B0008072D21A032AADD9DAB203320433452130
:1021C000002044F82210636001F016FDEB1CDBB226
:1021D00004EB8303019A3948DA60002103F07AFDA9
:1021E00080F31008364B374A3E0C9B1AB6EBD30FE0
:1021F00057D26B1CDBB204EB830346EA0846DE6071
:10220000D4F80C349847AB1CDBB204EB8303EDB27B
:102210000335D86014F8253067F3C50304F825307A
:1022200054F8252069F39F2222F4717323F00303ED
:1022300043F0410344F8252024F8253023781BB1CE
:10224000FFF712F90028FBD1FFF70CF907B0BDE842
:10225000F08F3046A7E7BDF80E309B090333090C19
:102260000BEB930B95E7BDF80C30C3F38313090C0C
:102270009B448EE74B880CEB9313D8B2C11C03F13F
:10228000030C14F82120E34604EB810102F0040260
:1022900068E70B88C3F383136344EEE703F1030B92
:1022A00062E7054940F2A91003F070FCA1E72B4654
:1022B00082E700BF0C060020600E0100280A002003
:1022C00060470100604601002DE9F04F6E4C87B079
:1022D00007460020884601F075FCD4E9015303F558
:1022E00080735B1B022B00F2CD8004F21C4604F5C8
:1022F000836A04F214490121304603F019FD504667
:1023000003F03AFD484603F037FDA368D8B2C21C7B
:1023100004EB820114F8222012F0040200F0A980DC
:1023200003F1030C91F800E00EF0030EBEF1010F73
:10233000E34600F09980BEF1020F00F1030E00F0B9
:10234000848004EB8E01002AECD104EB8000013381
:10235000C2680392DBB204EB830302F00302012A9A
:10236000D9686BD0022A61D048494FF4C27003F09B
:102370000DFC00214846019103F00AFD0199002857
:1023800052D03046C4F808B003F0D2FCD4E9013290
:1023900002F58072D21A022AADD9DAB203320333BF
:1023A0000521002044F82210636001F025FC002183
:1023B000374803F08FFC80F31009364B364A3E0C49
:1023C0009B1AB6EBD30F57D26B1CDBB204EB830323
:1023D00046EA0946DE60D4F80C349847AA1CD2B20B
:1023E00004EB8202EBB20333D06014F8232067F3CE
:1023F000C50204F8232054F8231068F39F2121F428
:10240000717222F0030242F0010244F8231024F812
:10241000232023781BB1FFF727F80028FBD1FFF713
:1024200021F807B0BDE8F08F3046ADE7BDF80E30BB
:102430009B090333090C0BEB930B9BE7BDF80C30A6
:10244000C3F38313090C9B4494E74B880CEB931361
:10245000D8B2C11C03F1030C14F82120E34604EBAD
:10246000810102F004026EE70B88C3F38313634417
:10247000EEE703F1030B68E7044940F2A91003F00B
:1024800085FBA1E72B4688E70C060020600E0100C3
:10249000280A002060470100604601002DE9F04352
:1024A000DFF8E8C0DCF810340646002B65D0DD68A4
:1024B0002F790024A742204650D02B4603E0DB684A
:1024C0001A79A2424AD01B68002BF8D1F368187120
:1024D000DCF81034002B4BD0DA68F36812681A600D
:1024E000DCF81034DB681E60254F264BFF1AFF080E
:1024F00032D0254CDFF8988003F1070C00224FF012
:10250000070EF5681CF8323095F8049025688B4268
:1025100009EB490928BF0B4603FA09F36B400EFA91
:1025200009F903EA09036B40C3F3C205C3F3821937
:102530004D4538BF4D4603F007094D4538BF4D4660
:10254000C3F342294D4538BF4D4628F82250013289
:10255000BA4244F8043BD4D1BDE8F083092C04F11D
:10256000010301D01C46A5E74FF0FF30BDE8F08322
:10257000CCF81064F2681360B6E71846A6E700BF0F
:102580006047010060460100940200200C06002014
:102590001602002038B5084BD3F8104401251D70F1
:1025A0004CB1E3685D71236820465B689847E36837
:1025B0001C68002CF5D138BD0C0600202DE9F04F29
:1025C000744B7549754C8FB0C91A89080026099358
:1025D0000A9105AA03AB43F2274141F26E00CDE90F
:1025E00005660796CDE90366089402F037FF0746B3
:1025F000002800F0E58048F20963984204D00325E2
:1026000028460FB0BDE8F08F05A808A902F04EFEDD
:10261000634B5B88022B0546F2D9624A624B634CDE
:102620009B1ADB083046019301F0CCFAD4E9018310
:1026300003F58073A3EB0803032B00F2ED8104F292
:102640001C4704F5836904F214460121384603F05F
:102650006FFB484603F090FB304603F08DFBA36808
:10266000D8B2C11C04EB810214F8211011F0040E41
:1026700000F0AE8103F1030C117801F00301012990
:10268000E24600F08A81022900F07881C21C04EB46
:102690008202BEF1000FEFD104EB80000133C2686B
:1026A0000B92DBB204EB830302F00302012AD96828
:1026B00000F09381022A00F098813D494FF4C270E6
:1026C00003F064FA4FF0000B304603F061FB59460B
:1026D000002800F080813846C4F808A003F028FBE9
:1026E000D4E9012303F580739B1A032BADD9D3B230
:1026F00003334521043244F823100020626001F0C6
:102700007BFA08F10303DBB204EB830300212948C1
:10271000DD6003F0DFFA80F31007274B214ABDF894
:102720000460A3EB020AB6EBDA0F80F0678108F1D0
:102730000103DBB204EB830346EA0746DE60D4F80C
:102740000C34984708F10203DBB204EB83035FFA11
:1027500088F808F10308D86054F82820174B63F371
:102760009F2222F47F7323F0030343F0590344F8BC
:10277000282024F828302378002B00F0DC80FEF796
:1027800073FE002800F0D780FEF76EFE0028F6D119
:10279000D1E000BF94020020140300206E10273403
:1027A0002802002060460100884601000C06002037
:1027B000600E0100280A002060470100180E010089
:1027C00005A808A902F024FE944B5B88022B05465D
:1027D0007FF616AF924A934B934C9B1ADB08384610
:1027E000019301F0EFF9D4E9018303F58073A3EBC2
:1027F0000803032B00F20E8104F21C4704F58369E1
:1028000004F214460121384603F092FA484603F0D8
:10281000B3FA304603F0B0FAA368D8B2C11C04EB97
:10282000810214F8211011F0040E00F0BB8003F1B6
:10283000030C117801F003010129E24600F09980B0
:10284000022900F1030100F0858004EB8102BEF152
:10285000000FEED104EB80000133C2680B92DBB2B3
:1028600004EB830302F00302012AD96800F0A88078
:10287000022A00F09C806D494FF4C27003F086F983
:102880004FF0000B304603F083FA5946002800F061
:102890008C803846C4F808A003F04AFAD4E9012332
:1028A00003F580739B1A032BACD9D3B203334521B4
:1028B000043244F823100020626001F09DF908F111
:1028C0000303DBB204EB830300215948DD6003F00E
:1028D00001FA80F31007574B514ABDF80460A3EB8F
:1028E000020AB6EBDA0F80F08F8008F10103DBB249
:1028F00004EB830346EA0746DE60D4F80C349847BD
:1029000008F10203DBB204EB83035FFA88F808F1F5
:102910000308D86054F82820474B63F39F2222F421
:102920007F7323F0030343F0590344F8282024F86D
:10293000283023782BB9FEF795FD28460FB0BDE867
:10294000F08FFEF791FD0028F5D0FEF78DFD0028F1
:10295000F7D1F0E753880CEB9313D8B2C21C03F104
:10296000030C14F822E0E24604EB82020EF0040E9F
:102970006DE71388C3F383136344EEE753880CEBCE
:102980009313D8B2C21C03F1030C14F822E0E24600
:1029900004EB82020EF0040E7BE61388C3F383136C
:1029A0006344EEE703F1030A54E7384674E7BDF8E1
:1029B0002E309B0903334FEA114B0AEB930A61E770
:1029C000BDF82C30C3F383134FEA114B9A4459E7F7
:1029D00003F1030A60E6384680E6BDF82C30C3F305
:1029E00083134FEA114B9A446EE6BDF82E309B09D3
:1029F00003334FEA114B0AEB930A65E60B4940F2A9
:102A0000A91003F0C3F892E6084940F2A91003F0B8
:102A1000BDF86AE7424648E7424668E628020020D9
:102A200060460100884601000C060020600E01008F
:102A3000280A002060470100E40D01008268D2F8F6
:102A40005423930712D410B50446FFF7B7FD30B9ED
:102A50002046084A0821BDE8104004F001BE204687
:102A6000054A0221BDE8104004F0FABD00221146DB
:102A700006F00CBEAC0A0100C40A01002DE9F04FBB
:102A80008BB0002502AB04AA43F2274141F26E004D
:102A9000CDE904550695CDE9025502F0DFFC034669
:102AA00078B148F20962904203D003200BB0BDE830
:102AB000F08F814B5B88012B17D805200BB0BDE848
:102AC000F08F07A904A8CDE9073302F09BFB00288B
:102AD000ECD17A487A4A0899121A0CF047F904A8FE
:102AE00002F0BAFB0BB0BDE8F08F764BDFF8ECA13B
:102AF000754CA3EB0A084FEAD8032846019301F06E
:102B000061F8D4E9017303F58073DB1B022B00F23B
:102B1000D18004F21C4504F5836904F214460121B6
:102B2000284603F005F9484603F026F9304603F03D
:102B300023F9A368D8B2C21C04EB820114F8222046
:102B400012F0040200F09A8003F1030C91F800E007
:102B50000EF0030EBEF1010FE34600F08A80BEF1D5
:102B6000020F00F1030E75D004EB8E01002AEDD1A7
:102B700004EB80000133C2680792DBB204EB8303ED
:102B800002F00302012AD96800F08680022A7AD076
:102B90004E494FF4C27002F0F9FF4FF00008304682
:102BA00003F0F6F8414600286BD02846C4F808B078
:102BB00003F0BEF8D4E9012303F580739B1A022BBE
:102BC000ADD9D3B2033303320521002044F82310DA
:102BD000626001F011F800213D4803F07BF880F3BA
:102BE00010053C4BBDF80480A3EB0A0AB8EBDA0FE2
:102BF0005AD27A1CD2B204EB820248EA0545D5606B
:102C0000D4F80C349847BB1CDBB204EB8303FFB24F
:102C10000337D86054F827202F4B63F39F2222F408
:102C20007F7323F0030343F0110344F8272024F8B3
:102C3000273023782BB9FEF715FC05200BB0BDE833
:102C4000F08FFEF711FC0028F5D0FEF70DFC0028F0
:102C5000F7D1F0E74B880CEB9313D8B2C11C03F10A
:102C6000030C14F82120E34604EB810102F0040276
:102C70007CE70B88C3F383136344EEE703F1030B94
:102C800076E7284694E7BDF81E309B0903334FEAE8
:102C900011480BEB930B82E7BDF81C30C3F3831391
:102CA0004FEA11489B447AE7084940F2A91002F024
:102CB0006DFF9EE73A4684E7280200209402002038
:102CC00014030020884601000C060020600E01005D
:102CD000280A002060470100BC0D01006046010089
:102CE0008268D2F85423930712D410B50446FFF734
:102CF000C5FE30B92046084A0821BDE8104004F05E
:102D0000AFBC2046054A0221BDE8104004F0A8BC33
:102D10000022114606F0BABC700A0100880A0100C0
:102D2000F0B5C38885B004460D46002B53D1217AF7
:102D300005294ED0637A002B40D12B4B2B492C4ACE
:102D40001E6808682168B1FBF0F0B0FBF6F1A2FB49
:102D500001324FF4616CD70A264B0CFB1717A3FB0B
:102D600007C306FB11015B094FF47A70C3EB031C28
:102D700000FB01F1A7EB8C07B1FBF6FC06FB1C1175
:102D800000FB01F1CDF804C0B1FBF6F62846D20AEB
:102D900000971949029607F0A5F8184B227AA088E7
:102DA00053F822400021FEF71BFB1549034622463B
:102DB000284605B0BDE8F04007F094B8A088FEF7BB
:102DC0003BFB104B104953F82020284607F08AF8A7
:102DD000B3E705B0F0BD0D4A00920D490D4A2846F3
:102DE00007F080F8A3E700BFC40A0020C80A00204B
:102DF000C5B3A29189888888741101009C110100D3
:102E00009011010010110100701101006811010002
:102E100050110100481101002DE9F04385B01D4615
:102E20000C9C002381460E46174694F80C802373B1
:102E300021462846FFF774FF062F09D8DFE807F080
:102E4000042E343B444F1F004946204607F04AF801
:102E50002B7A052B05D06B7A5BB92749204607F002
:102E600041F8204607F02AF884F80C8005B0BDE848
:102E7000F083224A2249204607F034F8EDE7D6E9EC
:102E80000413F2680393B3680291CDE90032494616
:102E9000D6E90023204607F025F8D9E732684946ED
:102EA000204607F01FF8D3E74946D6E9002320461D
:102EB00007F018F8CCE7B36800934946D6E9002339
:102EC000204607F00FF8C3E7D6E9023201920093DB
:102ED0004946D6E90023204607F004F8B8E7D6E9CA
:102EE0000321B3680291CDE900324946D6E90023B7
:102EF000204606F0F7FFABE7480A01006811010021
:102F000070110100082900D970472DE9F04F1D46C6
:102F100083B000241B7B2C7307460E4610462946BF
:102F200091460193DFF8C8A0DFF8C880FFF7F8FEEC
:102F300005E03A5D013406F0D5FF082C09D0A64221
:102F400041462846F5D85146013406F0CBFF082CFF
:102F5000F5D12249DFF8A0A0214CDFF8A080284657
:102F600006F0C0FF4FF0000B0EE012F8081011F051
:102F7000970F08BF2E22214628460BF1010B06F0C1
:102F8000B1FFBBF1080F10D05E4505D917F80B2033
:102F90007E2AEAD92E22EEE7514628460BF1010B94
:102FA00006F0A0FFBBF1080FEED199F80830052B11
:102FB00002D099F809305BB90A49284606F092FF19
:102FC000284606F07BFF019B2B7303B0BDE8F08F12
:102FD000054A0649284606F085FFEDE74011010045
:102FE00044110100480A010068110100701101003C
:102FF0003C11010034110100981101001944010035
:10300000074A0849012390420B6005D940089042C5
:103010004FEA4303FAD80B60034B1860704700BFB8
:1030200040420F00C80A0020C40A00200E4A10685F
:1030300010F0010015D110B414685060C4F30724D7
:103040003CB10346014693600133A3421161D16054
:10305000F9D1054B05225A60BFF34F8F5DF8044B41
:1030600070470620704700BF90ED00E02DE9F04763
:10307000224F1F2AD7F800C02CD9551E05EA020698
:103080009CB20D4034432C4324D18146CCF3072518
:1030900020461E468846924600F094FD45B3BC602B
:1030A0003B69DB071AD42546BAFA8AF3C3F11E033B
:1030B000124A46EA430343F00103C2F80C800020A1
:1030C000136100F099FDBFF34F8F89F8005020463F
:1030D000BDE8F08707242046BDE8F087234601338A
:1030E0009D4205D0BB603A69D207F8D4DDB2DBE778
:1030F000002000F081FD0424EDE700BF90ED00E02A
:10310000F0B5254E254D06F17F0424F07F0404F12F
:1031100080039D4287B022D9214B802221460DF1A8
:103120001700FFF7A3FF1F4B07465B8820B9022B50
:103130001AD8384607B0F0BD002BFAD008F012FEBE
:10314000194C1A4B1A49E41AE408240403463A4677
:1031500044F00100FEF7AEFB384607B0F0BD15495C
:10316000422002F013FDD7E7104B0F481249C01A56
:10317000124BC008AD1B00049E1B04F17F0300939B
:10318000019540F00300029623468022FEF792FE4E
:10319000384607B0F0BD00BF00E00020000001206D
:1031A00000002917900200205847010060460100E6
:1031B0009C120100F41101003C12010080FF00206C
:1031C00030B482B001248DF80740144B9DF80750AD
:1031D000186044F20104A04259609A6013D044F28E
:1031E0000201884206D1DA60DA6812689A61DA6808
:1031F0005268DA6172B69DF80730002BFBD162B6D7
:1032000002B030BC70471A611A6992685A611A6933
:1032100012689A611A695268DA61EBE7CC0A0020F9
:1032200000B583B002900091019244F20100714612
:103230006A4600F003F803B000BD00BF2DE9F0437B
:10324000044685B00E46154672B6FFF7A3F9FEF7A1
:103250000BF90028FBD1324F44F201039C427A88DB
:1032600012D044F202039C4236D1002A46D12D4BA3
:103270001B68DB0700D500BE2A463146204605B054
:10328000BDE8F043FFF79CBF002AF0D0D5F80890C6
:10329000254B264A4846A3EB020808F063FD2B683D
:1032A0002349CDE901364FEAD8084FEA08486B6850
:1032B000009348F0010803464A464046FEF7FAFDEF
:1032C0007B88002BD3D040461A49FEF7FDFF154BF3
:1032D0001B68DB07D0D5CEE7002AC8D0134B1248B5
:1032E0001549C01AC008000440F001003246FEF73C
:1032F000F9FE0C4B1B68DB07BED5BCE70A480B4F39
:103300000E49C01BC0080004D5E9003240F001009E
:10331000FEF7D0FA034B1B68DB07ADD5ABE700BF68
:1033200028020020F0ED00E0884601006046010020
:103330002813010050130100641301000C13010055
:10334000D0E90223D1E90201994208BF90422CBF83
:1033500001200020704700BF2DE9184804460020D6
:1033600000F030FC23692BB94FF0FF324FF0FF33F0
:10337000C4E90223002000F03FFC1B4B5B88032BB9
:1033800025D8D4E905309847002000F01BFC2369BC
:10339000BBB1D4E902BCBCF1FF3F08BFBBF1FF3FAA
:1033A0000FD01BEB03004CF10001C4E90201002027
:1033B00000F022FC21460D4808F068FC0120BDE821
:1033C0001888002000F018FC0020BDE81888084B81
:1033D0000848A2690849C01AC008000440F0040067
:1033E000FEF780FECDE700BF30020020AC130100E5
:1033F0006046010098460100801501002DE9F04F5C
:103400008BB08346BC4D00F0CBFEBC4BED1AED08F3
:103410002D0445F004030393002840F00C820021A2
:10342000584600F0EBFEB64C002840F0E381012145
:10343000584600F0E3FE002840F0C38109A9B148D6
:1034400002F008FC824688B3DFF8B88245F0030931
:103450004FF0FF364FF0FF379AF80030012B00F0A5
:103460002C81002B00F07881022B14D1DFF8A0A270
:10347000504608F02DFC30B1C0E90267504608F014
:1034800027FC0028F8D1A04BA04A5B880121022B21
:10349000117000F28D8109A9404602F00BFC09A9C8
:1034A000404602F0D7FB82460028D5D145F0010303
:1034B000974F984EDFF880820693CDF808B03846D3
:1034C00008F016FC002800F08280D0E90223591C85
:1034D00008BFB2F1FF3F00F0EC802168C1B1216864
:1034E000D1E902018B4208BF824276D22368D3E938
:1034F0000223013308BFB2F1FF3F09D02368DB6923
:103500005B88032B00F21C812168384608F0BEFB63
:10351000384608F0DDFB0546C0694388032B00F2FE
:10352000BC807D4B07933046D5E9029A00F086FEB9
:103530007949D8E90023D1E900BCCDE904BC12EBFC
:10354000000B43F1000C58466146DDE904BC6145BF
:1035500008BF584503D210F1807041F10001B9EB6A
:10356000000300936AEB01030193DDE90023012AC4
:1035700073F1000158DBDFF8C4A1524500F28780E7
:103580004FF496034A460021304600F069FD5E4B39
:103590005B88032B824623D8BAF1000F2AD0BAF1F8
:1035A0000D0F45D0584B5B88002B37D15B494FF44A
:1035B000867002F0EBFAE8694388032B24D80023D5
:1035C0003846236008F094FB00287FF47EAF236820
:1035D000DDF808B0002B00F04C810BB0BDE8F08F97
:1035E000034629F07F424E490398FEF763F9BAF18A
:1035F000000FD4D12368DDF808B0002B00F0CF8095
:1036000025600BB0BDE8F08F464B4749C01A8008D3
:10361000000440F00400FEF757FED0E7524643494D
:103620000698FEF75FFDC1E70021304600F0D2FDAD
:103630006B69002B00F0B780344B1B78002BBAD09D
:10364000304600F0FBFDD8E9009A079BD3E9002340
:1036500019EB00094AF1000A9A4508BF914548460E
:10366000514603D219F180704AF10001D5E90223D5
:10367000994208BF904280F0A080013308BFB2F1A8
:10368000FF3F98D02946384608F000FB93E73046C4
:1036900000F0D4FD00EB0A0972E7224AAB68244926
:1036A000801A8008000440F004001A46FEF702F970
:1036B00037E7384608F00CFB01E7DAF80410236816
:1036C000994269D0124808F023FB20B90E4B5B8861
:1036D000022B00F2BE80DAF80410C8694388032B7D
:1036E0007FF6D9AE0F4B1349C01A8008000440F092
:1036F0000400FEF7E9FDCEE69846010060460100B1
:10370000600B00203400002030020020F80A002066
:10371000AC13010048000020580B0020C813010022
:1037200000150100140200203815010020150100C9
:10373000E0140100A8140100F00A0020FFFFB4000B
:103740002268714BD0697149C01A8008000440F0AA
:103750000400FEF7B9FDD7E6DAF80410D1E9022338
:10376000013308BFB2F1FF3F3FF495AE684808F05F
:103770008DFADAF80430D8694288032A7FF68BAED6
:10378000614A9B686349801A8008000440F0040085
:103790001A46FEF78FF87EE6002323609DE7584621
:1037A00000F006FC2CE75C49A52002F0EFF943E7A6
:1037B0005A494846FEF788FD6DE62846FFF7CCFDDE
:1037C000F9E65748574E00F039FD574BD3E900232F
:1037D000D6E9009A171843F10008D04508BF4F45B5
:1037E0003846414603D217F1807048F10001C6E91E
:1037F000000123E623688BB3584600F01FFD00212B
:103800000646584600F014FD301A20F07F40B0F50F
:10381000960F6AD22368DB695B88032B59D8D4F8EA
:103820000080D8F81430002B69D0404B1B784BBB7C
:1038300000232360FBE53E4B5B88032B1DD83A4AEF
:10384000D2E9003113F1807341F10001C2E9003186
:10385000E5E538494846FEF737FD3CE7344B5B88E1
:10386000012B7FF6E4AD344945F00200FEF72CFD54
:10387000DDE5584600F0AEFBAFE630490398FEF7B1
:1038800023FDDCE7264800F0D9FC274B2549D3E986
:103890000023D1E9006712EB000943F1000ABA45A1
:1038A00008BFB1454846514603D219F180704AF12C
:1038B0000001D8E90223994208BF90421BD201338C
:1038C00008BFB2F1FF3FB3D04146114808F0DEF91E
:1038D000AEE722680C4BD0691949C01A8008000471
:1038E00040F00400FEF7F0FC99E70B494FF4A1709B
:1038F00002F04CF98EE74046FFF72EFD98E70649A7
:10390000A52002F043F990E714020020CC14010036
:10391000AC13010048140100C8130100B8140100E1
:1039200048000020580B0020F00A0020F80A002070
:10393000300200207014010010140100B8130100BF
:103940000414010010B5134B13491B68134882B0CF
:1039500058220193082302F027F9044610B12046AB
:1039600002B010BD0E4A0F4801A900F079FA0446D2
:103970000028F4D101210B4800F0FEFB0123194679
:10398000094A084800F038FB084B012220461A700B
:1039900002B010BD7C130100FC0A0020340000209E
:1039A000FD33000048000020FFFF7F00F80A0020E0
:1039B00030B50C4683B0054688B1CAB12B68A4F176
:1039C00001044FF0FF304FF0FF31B4FA84F4C3E943
:1039D000020164090020C3E9044203B030BD084974
:1039E000019240F25A2002F0D1F8019A002AE5D162
:1039F000034940F25B2002F0C9F8072003B030BD54
:103A0000C81301002DE9704B0D4683B016460446DD
:103A1000002858D0002000F0D5F8D4E90223013363
:103A200008BFB2F1FF3F06D0002000F0E5F800200B
:103A300003B0BDE8708B2A4800F000FC294A2A4BED
:103A4000D2E90089D3E9002318EB000B49F1000CFF
:103A50009C4508BF9345584661462FD3421941F112
:103A60000003C4E90223002000F0C6F82369A66120
:103A700003B1256101A91D4802F0AEF8D0B10025BF
:103A80004460057001A9194802F0D4F8044600BB4F
:103A9000174B5B88012BCBD9164B17481749C01A17
:103AA000C008000440F00200FEF70EFC204603B000
:103AB000BDE8708B042003B0BDE8708B1BF18070F3
:103AC0004CF10001CAE70E4940F26B2002F05EF8AB
:103AD000A0E7034800F0B6FB284603B0BDE8708BB2
:103AE00048000020F00A0020580B0020340000207D
:103AF000300200206046010098460100801301005A
:103B0000C813010010B5044682B0002839D0002047
:103B100000F058F8D4E90223013308BFB2F1FF3FA7
:103B200029D04FF0FF324FF0FF330020C4E90223C9
:103B300000F062F801A9194802F04EF8C0B1012363
:103B40004460037001A9154802F074F80446F0B906
:103B5000134B5B88012B0CD9124B13481349C01A25
:103B6000C008000440F00200FEF7AEFB204600E073
:103B7000042002B010BD002000F03EF8002002B08A
:103B800010BD0B4940F2932002F000F8BFE709484E
:103B900000F058FB002002B010BD00BF3400002030
:103BA00030020020604601009846010080130100A9
:103BB000C813010048000020014800F03FBB00BFCF
:103BC0004800002008B5EFF30583C3F308031BB9D1
:103BD000EFF31483DB0705D472B6054A136801338B
:103BE000136008BD0349432001F0D0FFF4E700BF94
:103BF000640B00209C15010008B5EFF30583C3F3A7
:103C000008031BB9EFF31483DB0706D4054A1368D6
:103C1000013B136003B962B608BD0349512001F0AE
:103C2000B5FFF3E7640B00209C1501008368D3F80F
:103C300054339B0703D50022114605F027BDBFF37F
:103C40004F8F0549054BCA6802F4E0621343CB600D
:103C5000BFF34F8F00BFFDE700ED00E00400FA0561
:103C600070B58368D3F85443C4F3400464B92A4B55
:103C70000139012915465B8833D0002945D0022936
:103C800008D0012B21D870BD00221146BDE870403C
:103C900005F0FCBC012BF6D921460A2268680BF01E
:103CA00001FB214606460A22A8681C4C0BF0FAFAD2
:103CB0001B4B1C49E41AE40824040346324644F032
:103CC0000200BDE87040FDF7F5BD1448144B1649DD
:103CD000C01AC008000440F00200BDE87040FEF7C2
:103CE000F3BA012BCFD9214650680A220BF0DAFA39
:103CF0000B4A0A4B0D499B1ADB081B040246BDE820
:103D0000704043F00200FEF7EDB9012BBBD9034828
:103D1000034B0749DCE700BF28020020884601006A
:103D200060460100FC16010018170100E0160100B2
:103D3000C816010070B58368D3F85443C4F3400437
:103D40005CB9294B0139012915465B8832D000291D
:103D500044D0022907D00BBB70BD00221146BDE83C
:103D6000704005F093BC002BF6D021460A2268680B
:103D70000BF098FA214606460A22A8681B4C0BF065
:103D800091FA1B4B1B49E41AE4082404034632460B
:103D900044F00100BDE87040FDF78CBD1348144BA2
:103DA0001549C01AC008000440F00100BDE8704089
:103DB000FEF78ABA002BCFD0214650680A220BF0BA
:103DC00071FA0B4A094B0D499B1ADB081B0402468A
:103DD000BDE8704043F00100FEF784B9002BBBD072
:103DE0000248034B0649DCE7280200208846010010
:103DF000604601007C16010098160100641601005F
:103E0000501601008368D3F854339B070ED400B5D5
:103E1000084B094A85B0D21ACDE901220093074A1E
:103E2000082103F01DFC05B05DF804FB00221146DB
:103E300005F02CBC000000000C480100DC1501005E
:103E40008368D3F854339B0704D4044A45210320E4
:103E5000FFF7E6B90022114605F018BC1416010060
:103E60002DE9F0410D4617460446002874D0002D78
:103E700067D0002F6BD06379414E424906EBC302F5
:103E800041F823701379002B54D12F88D4F8008087
:103E9000B7F5805F3DD2C8F80875AD7894F9047025
:103EA000072D42D86D01002FEDB21FDB07F16047EF
:103EB00007F5614787F8005394F90430002B07DBBE
:103EC000314903F01F0001225B09824041F82320A1
:103ED00063792E4A46F8334006EBC3065388012225
:103EE000022B327108D80020BDE8F081284B07F082
:103EF0000F073B441D76DFE7264B27482749C01AAA
:103F0000C008000440F00300FEF7DEF90020BDE821
:103F1000F08123494FF4BE7001F038FEC8F80875EF
:103F2000AD7894F90470072DBCD91E496B2001F0BF
:103F30002DFEB7E7154B5B88012B14D80820BDE890
:103F4000F0811949562001F021FE002F93D1164926
:103F5000572001F01BFE8EE71349552001F016FE95
:103F6000002D86D1EDE70B4B0B481049C01AC00855
:103F7000000440F00200FEF7A7F90820B4E700BFF4
:103F8000680B0020700B002000E100E030020020F0
:103F9000FCEC00E060460100984601005419010065
:103FA000F41801002419010098180100D01801002C
:103FB00010B5044618B1236801221A6010BD0449E7
:103FC000872001F0E3FD236801221A6010BD00BFC5
:103FD0009818010010B5044618B1236801225A60F0
:103FE00010BD04498D2001F0D1FD236801225A60E3
:103FF00010BD00BF98180100F0B50E4685B004460C
:1040000010B321684FF48035B540C1F808532168DA
:1040100006F15000C1F848538000216880B20027A3
:104020000F5006F5A87608582168039022F07F42C9
:10403000039841F826202268C2F8445313B123683C
:10404000C3F8045305B0F0BD04499620CDE9002320
:1040500001F09CFDDDE90023D3E700BF98180100C3
:104060002DE9F04701F15005AD004FF4803782B0E3
:104070000E46984622F07F49ADB28F400446002894
:104080006DD02368C3F848732368C3F808732268A7
:1040900002EB8603D2F80425D3F84015C3F8402577
:1040A00023684FF0000A43F805A0891A5B59009372
:1040B00021F07F410129009B44D02368D3F80455A7
:1040C000C3F84473A9EB050323F07F43012B06F5E6
:1040D000A87626D0236843F826902368D3F80415E1
:1040E000CA43C8F1FF184A4408F57F4822F07F42CE
:1040F000904512D342B1C3F8447323680020C3F83B
:10410000047302B0BDE8F08709F1010243F82620EC
:104110002368D3F804259142EDD00D2002B0BDE80C
:10412000F0872168124B09F1010241F8262043F083
:1041300001034FF4806098472368D3F80425954223
:10414000D9D0EAE70A4B4FF4806043F00103984767
:10415000236843F805A05B590193019BADE705492E
:10416000CD2001F013FD0349B32001F00FFD88E7D6
:10417000901801009818010038B50D46044640B16A
:1041800022680223C2F8443315B12268C2F804330E
:1041900038BD0249A92001F0F9FCF1E798180100A7
:1041A00010B5044682B068B12368D3F8040138B171
:1041B0000022C3F80421D3F804310193019B0120AC
:1041C00002B010BD0249BA2001F0E0FCECE700BFEC
:1041D0009818010038B54FF480348C40054630B152
:1041E0002B68C3F848432B68C3F8084338BD02491D
:1041F000B32001F0CBFCF3E79818010030B501F1D2
:104200005004A40083B0A4B2054650B12B681859DD
:1042100028B100221A511B590193019B012003B0C0
:1042200030BD0249BA2001F0B1FCEFE79818010057
:10423000036801F5A87153F8210070470368D3F8AB
:104240000405704790F90430002B09DB5A0940320D
:1042500003F01F030121034801FA03F340F8223061
:10426000704700BF00E100E0024A034B10681B6882
:10427000184700BF680B0020700B00202DE9F041AB
:1042800002230B808468013430D000F5805508305B
:1042900072B3334F9E464FF6FF764FF0010C4388C2
:1042A000DC1C00EB8404A54252D38488B44249D07C
:1042B0000488002C46D08468B4F1FF3F42D0D7F880
:1042C0000080A04503D23C60B1F800E0438873440D
:1042D00003331FFA83FEA1F800E04488033400EBA7
:1042E0008400854202D904680134D8D1BDE8F08148
:1042F0001B4C9E464FF6FF764388DA1C00EB820289
:10430000954227D38288B2420BD002884AB1826894
:10431000571C06D02768974203D22260B1F800E00C
:104320004388734403331FFA83FEA1F800E04288F8
:10433000033200EB82008542D8D903680133DBD118
:10434000BDE8F08182F800C0B1F800E04388BEE724
:10435000012313704FF480630B80BDE8F08100BF30
:10436000AC0B0020F0B443681BB1394AD468A342B7
:1043700049D20023374F0B807A684FF0010C02F5C9
:1043800080544FF6FF76083294420ED8BCF1020FEB
:10439000A1F800C007F1140757D07A6802F58054DD
:1043A000083294424FF0020CF0D913680133EDD07B
:1043B0005388033302EB83039C42E7D39588B542CD
:1043C0000DD015885DB19568B5F1FF3F07D0036842
:1043D000AB4211D05388033302EB8302D4E79C42F3
:1043E000D4D91A6801321A46D0D05D88033503EB60
:1043F00085039C42E2D2C9E7174B42601B890381C7
:104400000120F0BC704712699342B2D813F0030543
:10441000AFD1114A048912899442AAD104689A68DA
:104420009442A6D10B484268934203D902F58052C8
:10443000934207D38269934207D902F5805293428F
:1044400003D201250D800120DBE70020D9E700BF62
:1044500000020020B40B0020980B00202DE9F04F43
:10446000A04E34688BB005464FF6FF79002C00F063
:1044700091802278531E052B00F25082DFE803F072
:10448000583B3B1E1E03002D40F0D280DFF87CC25B
:104490009CF80C209CF80030002A00F0EF80013BD3
:1044A0008CF80C50062B00F23982DFE813F051042F
:1044B000270378015201370213032702002D40F031
:1044C000B7802379012B00F06A82002B00F04F8225
:1044D00005AF022B0595C7E902553D6101D048F2B1
:1044E0000E6506952378023B042B34D8DFE803F0F1
:1044F0008662762D8200B4F814A0A17D002D40F0D4
:104500001F824FEA8A08784F08EB0A0307EB830300
:104510001D895B6803EB8505062900F27084DFE8DE
:1045200011F0DE01CD01BA01A70182016901530139
:10453000002D40F0FA812379032B00F29480DFE80C
:1045400013F0FC00E900C600AA0004238DF8143023
:10455000E388ADF82030654C04F1100554F8043BB5
:10456000384603B19847A542F8D1614C6149624889
:104570000023336001F09EFB2368002B4AD02046C5
:10458000012101F0E1FB00284FD034680025002C08
:104590007FF46FAF5749584801F05CFB0446306028
:1045A00000287FF466AF55494FF4B46001F0EEFA8D
:1045B00034685EE702238DF814302389ADF820308B
:1045C000A388ADF82230E3680793A37DA3F1060327
:1045D000B3FA83F35B098DF82430BCE703238DF82D
:1045E0001430E388ADF820302389ADF82230E36839
:1045F0000793B0E705238DF81430ACE701238DF85D
:1046000014302389ADF82030A388ADF82230E36858
:104610000793A0E739494FF4247001F0B7FA204618
:10462000012101F091FB0028AFD10BB0BDE8F08F64
:1046300005AF0023BB600593C7E903334FF406457C
:104640004FE700239A001A4407EB820300205968C1
:104650000090082307F82200294A2A4806F0BEFCE9
:104660000028E2D03468284A05AF00235360059340
:10467000C7E902333B6148F20D6532E7072B00F2D0
:104680005183DFE813F0BC024F034F03FC022A03FF
:104690003B013B013F031D4B134F5B881C4D03EB5C
:1046A000830307EB8300002222712C680092A98803
:1046B00007F823204368018102272B604460104AD9
:1046C000AF80214608230F4806F088FCC8E7104A4F
:1046D0000C4811680023237102249480012206F003
:1046E00043FDBDE7B00B0020B40B0020800B002081
:1046F000680C0020A80B0020500000207C1901004D
:104700006C19010000020020900B0020980B002083
:104710006C0C0020B74F3B78022B92D03B7D022BD4
:1047200000F06683B44A05AF012313700023536081
:104730000593C7E902333B61D3E6B04BB04A196831
:10474000B0480123237100230093082306F046FCA0
:1047500086E7BCF80230A74F03EB830307EB830720
:10476000FB68002B40F03D8204228CF80020796821
:10477000A448012206F0F8FC0546002D3FF455AF91
:10478000346805AF41F61D5200239542BB60059386
:10479000C7E9033308BF1D463FF4A3AE10E3DCF8BE
:1047A00004209648538884880168964803339BB256
:1047B0009B0001EB84010024009403248CF800404A
:1047C00006F00CFC0546D8E7E288204641F61D5568
:1047D00008EB0A0107EB8101D31C0A8913440B8102
:1047E000E2880446D04407EB88077B89033B9B1A89
:1047F0007B81C6E7844B854A1D8851688148844A7D
:1048000000234FF0060C84F816C00093042306F032
:10481000E5FB18BB05EB850507EB850701233B741A
:104820000BB0BDE8F08F794BA26977491A604FF061
:10483000000B1846C3F804B0FFF794FD002800F001
:10484000C2820223A37504232946CDF800B0E218E2
:104850006C4806F0C3FB00283FF4E7AEA37D306848
:10486000E288022B00F2BC82044648F20D65B9E7EB
:10487000E388226963484FF0010C05F10C01002523
:1048800084F816C09B00009506F0A8FB0028E5D12F
:104890000BB0BDE8F08F23695A48002B14BF0323E7
:1048A00001230022A37505F108010092042304F1FD
:1048B0000C0206F093FB0028D0D1B6E6032A0CBF09
:1048C000052306230022A375291D0092042304F169
:1048D00008024C4806F082FB0028BFD1A5E602235F
:1048E0000022A375042300922946E218454806F0E9
:1048F00075FB0028B2D10BB0BDE8F08F3F4B404AAA
:104900001968404800230093CCF8043007238CF842
:104910000030082306F062FB05462EE705AF0023B2
:10492000BB600593C7E90333D9E505AF324A0023DD
:1049300053600593C7E902333B614FF40645D0E568
:104940000229E2887CD82B4F4FEA8A0808EB0A013B
:1049500007EB810105AF4B89033B9B1A00224B817A
:10496000BA600592C7E903224FF40645B9E5022370
:104970002371CDE9065505AFE368059338460DF17F
:104980001201FFF7EFFC002840F0E58148F20965CD
:104990000023C7E90033C7E902333B61A1E5164BA9
:1049A0001B78002B00F00082DFF868E0BEF804807E
:1049B000B8F1010F10D80F4F08EB880207EB820205
:1049C00013784BB308F1010399B201299846AEF868
:1049D000043002F11402F3D905AF082200210D487A
:1049E0000AF0ECF90023BB600593C7E90333346890
:1049F00077E500BFB40B0020900B00206C0C00206A
:104A00007419010000020020740C0020740B0020B7
:104A100068190100780C00205368DEF8001003F5D7
:104A2000805003F1080C002900F0BC814B8803334F
:104A300001EB8301884210D80023CEF80030C1E793
:104A40004FEA8A08B24F08EB0A0107EB8101D31C39
:104A50000A8913440B81E28878E70B680133EBD0B5
:104A60004B88033301EB83039842E5D30392B1F8FB
:104A700004A0CA451ED0B1F800B0BBF1000F19D098
:104A80008A68013216D0E388039ACEF800105345A5
:104A9000C9D1002300939F4A9F48042306F09EFA41
:104AA000002840F0A08108EB880807EB8807012365
:104AB0003B74BAE598420BD919680131194607D001
:104AC000B3F802A00AF1030A03EB8A039842CED29C
:104AD000039AB1E7BCF802208D4F9300134407EB13
:104AE00083070620002379688C4A00938CF8000025
:104AF0000823894806F072FA05463EE6BCF802E053
:104B0000834FDCF804204FEA8E0404EB0E0307EB1E
:104B10008303596801F58050002A40F0C88001F1F4
:104B20000802824280F0CA801368013300F0C68018
:104B30005388033302EB83039842C0F0BF8095880B
:104B40004D4500F021811588002D00F01D819568EC
:104B5000013500F01981CCF80420714C5388A588E8
:104B600021686D4803339BB29B0001EB850122E66F
:104B7000012005468400231807EB8303DCF804209A
:104B80005968ACF8025001F5805E002A00F03481CB
:104B90005388033302EB830272451CD2136801333E
:104BA00019D05388033302EB83039E4513D39588B2
:104BB0004D4504D0158815B195680135CBD19E457A
:104BC00009D91A6801321A4605D05D88033503EB0E
:104BD00085039E45EBD2231807EB8307FB68002B68
:104BE00072D04F4B4C48196802229A8005228CF8EB
:104BF00000200023012206F0B7FA0546BDE5444F28
:104C0000BCF808103A7D3B78B2FA82F252090131C1
:104C1000B3FA83F35B098CF80B20ACF80810002280
:104C200001218CF80A30ACF802208CF80C208CF8AA
:104C300000104BB1364FF86800228CF80A2018B9E2
:104C40003A7C002A40F0D6809CF80B304BB1304FB4
:104C50003B6A00228CF80B201BB997F82430002BFC
:104C600086D105AF0023BB608CF80030ACF8023071
:104C7000CCF804300593C7E90333346831E4BCF859
:104C800002E0274D224FDCF80420AB8850884FEA21
:104C90008E0404EB0E0107EB8101033349680344E2
:104CA0004FF0020801F58050AB808CF800805388EB
:104CB000033302EB83028242FFF436AF744407EB06
:104CC0008407FB68002B8CD104208CF800000122A3
:104CD000114806F049FA05464FE5BCF802200C4F92
:104CE0000F489300991807EB810105684C68B0F8EC
:104CF00004E04D60046000250224A1F808E00D7472
:104D00008480EBE601238CF800309CF80A3090E7B1
:104D1000B40B002068190100000200206C1901008A
:104D20006C0C0020013B062B3FF6F8AD01A252F8B7
:104D300023F000BF514D0000FD4A00009F470000D6
:104D4000534700001D490000D54A0000FD480000FF
:104D50009CF80A306DE706992B4A8B88E3800B8814
:104D600023812A4800950423BDF8124006F036F945
:104D7000002831D1264B04EB840403EB8404012387
:104D800023740BB0BDE8F08F834297D21A680132CA
:104D90001A4693D05D88033503EB850383427FF683
:104DA000CEAE8BE7614645E605AF29460822194895
:104DB0000AF004F80595C7E902553D6148F201651E
:104DC0003468FFF78EBB05AF0590C7E90200386174
:104DD00048F20965FFF785BB346848F20D65D7E5F1
:104DE00048F20D65F4E4346848F20D6505AFCFE58F
:104DF000012327E40546BDE601F10802CCE6E2887E
:104E0000204648F20E65E3E4681901000002002024
:104E1000B40B0020780C00204068FFF71FBB00BFD8
:104E20002DE9F04782B0002A64D0B2F800A0B2F8B1
:104E300002900E46054601A94848984600F0CCFE6F
:104E40001C220446002109F0B9FF002C3ED00027A7
:104E500084F80080A4F814A0A77573682361012169
:104E60003F4800F065FFE060338823817388A380AA
:104E7000B8F1030FA4F8069018D0678101A937484C
:104E800000F0D8FE3DB100236B60E168354A29602F
:104E90001289AB722A810121334800F03DFF04469C
:104EA00070B10024204602B0BDE8F0870423A3754A
:104EB0002B68A36101A96781284800F0BBFEE2E7E7
:104EC000FFF7CCFA204602B0BDE8F087274B0AEB8B
:104ED0008A0A03EB8A0AC9F57F49BAF80A3048F210
:104EE000076409F1FD0999442046AAF80A9002B026
:104EF000BDE8F087B1F8089009F1030292B240F2E0
:104F0000FE34A2421AD8194C27783FB96689258900
:104F100035441544ADB2B5F5806F12D9257D3DB944
:104F2000E68BA58B35441544ADB2B5F5806F10D92D
:104F300048F20664204602B0BDE8F08748F20864F3
:104F4000B0E7BA46BD003D4404EB850432446281BB
:104F50006FE74FF0010A5746F4E700BF500000200A
:104F6000AC0B0020980B0020680C0020B40B002034
:104F70002DE9F04F964D89B02A780023CDE903330F
:104F8000CDE90533079372B1924C04F1100554F842
:104F9000043B03A803B19847A542F8D1002420465A
:104FA00009B0BDE8F08F281D02F0FF0900F0D8FE1F
:104FB0000028F3D14FF010234FF080525B69116944
:104FC0005269DFF83882581C08BF02FB01F3C8F8A9
:104FD00010308149A3F5405340460022C8F80C30F8
:104FE00005F0C4FF04460028D9D11C238C227B493C
:104FF0007B48DFF80CA200F0D7FD26464FF0030BEC
:105000002746D8F80C3016EB030CF2586AD0754BD3
:105010009A421DD1DCF8043073498B4200F087803E
:1050200001318B425ED1B9F1000F40F097806F4B98
:105030006F49C3F800C0604600220193FFF71EF9D4
:10504000019B9B88022B0CBF042308231C4310E008
:1050500001324CD007EB87030AEB830203210BF1EB
:10506000FF3B01370AF823101FFA8BFBBFB2C2F8CF
:1050700004C006F58056B6F5405FC2D1BBF1010F02
:1050800040F2A080E4B2022C00F09C80062C0ED1ED
:10509000504C012200232A7004F110066B6054F872
:1050A000043B03A803B19847A642F8D176E7002C49
:1050B00000F0888002A94A4800F08EFD1C220546B7
:1050C000002109F07BFE002D79D00123013C2B70DB
:1050D0000A2C5CD8DFE804F06D5B6D5B705B705B85
:1050E0006A596A00531C02D03E4B9A42B2D10CF16D
:1050F00004030CF580511A68013203F10403A9D1AD
:105100009942F8D1394B1A68002A37D007EB870348
:105110000AEB830102223748C1F804C00A810AF869
:105120002320791C47808FB244F00104A1E707EBEC
:105130008703990000220AF823200AEB010301F1FA
:105140001002083152445144C3F804C0604601378C
:10515000FFF794F844F00204BFB28AE7254A234BD4
:10516000578007EB870E0AEB8E02022118680AF8B7
:105170002E10013750601181BFB259E70222C3F8E7
:1051800000C09A804FF00109CEE702232B7102A9DB
:10519000134800F04FFD0121174800F0BDFD044603
:1051A00000287FF4FBAEFFF759F9F8E603232B71D3
:1051B000EDE700232B71EAE701232B71E7E748F2C3
:1051C0000764ECE600232B7048F20A646B60E6E6A5
:1051D000900B0020800B0020E42B0100DC0B002052
:1051E00050000020DEC0ADDEFE011EF16C0C002080
:1051F000700C0020980B0020680C0020000200209A
:10520000B40B002010B309B370B582B00C460DF199
:1052100006010546FFF7A6F818B948F2096002B082
:1052200070BDBDF806000B4B6E6800EB800003EB11
:10523000800001210C3000F07BFD26606B680122AC
:105240000C3300206360AA7202B070BD48F20460A3
:10525000704700BFB40B002010B310B582B00DF141
:1052600006010446FFF77EF8B0B1BDF806300E4ADD
:1052700003EB830302EB8303DA684AB1A27A3AB103
:10528000DA680021013A0846DA60A17202B010BD66
:1052900048F2056002B010BD48F2096002B010BDCE
:1052A00048F20460704700BFB40B00202DE9F047BE
:1052B000514B1B7882B073B3002944D00A884FF653
:1052C000FF739A4221D04B88FBB14D6815F003055E
:1052D00033D1B1F8089009F103039BB240F2FE32DA
:1052E000934233D8454A14783CB9568914893444DA
:1052F0001C44A4B2B4F5806F2BD9147D8CB148F254
:105300000665284602B0BDE8F08748F203652846E6
:1053100002B0BDE8F08748F20165284602B0BDE85A
:10532000F087D68B948B34441C44A4B2B4F5806FC0
:10533000E5D84FF00108C4460DE048F20265284662
:1053400002B0BDE8F08748F20465DAE748F2086584
:10535000D7E7A846AC464FEA8C07674402EB8707BD
:1053600033440C46824601A925487B8100F034FC79
:105370001C220646002109F021FD002E30D0022318
:105380000027A6F814803370B77563683361012174
:105390001C4800F0CDFCF060238833816388B38023
:1053A00001A97781A6F80690154800F043FCBAF1F0
:1053B000000F0AD0CAF80470F268134BCAF8002034
:1053C0001B898AF80A70AAF8083001210F4800F0FA
:1053D000A3FC0446002894D1FFF740F8254690E747
:1053E0007B89C9F57F4909F1FD099944A7F80A901D
:1053F00048F2076585E700BF900B0020B40B002042
:1054000050000020AC0B0020980B0020680C0020FE
:10541000A0B1114A1278CAB181B110B40C884FF60C
:10542000FF7294420DD04A885AB14A6812F00302C2
:105430000FD103235DF8044BFFF7F2BC48F2046080
:10544000704748F203605DF8044B704748F2016012
:10545000704748F20260F6E7900B00202DE9F04714
:105460003A4C2478002C69D0002A6BD0002B69D0EC
:10547000B3F804C0BCF1010F16D8354E0CEB8C0408
:105480008A4606EB84064FF6FF7E4FF0000834781C
:105490006CB10CF1010C1FFA8CF4022C9C8006F10B
:1054A00014064FF0010CF2D148F2096032E01C689A
:1054B000756805F58057002C3DD06588033504EBF1
:1054C0008504BC4202D3C3F80080E2E725680135B9
:1054D000F9D06588033504EB8505BD42F3D8B4F8EF
:1054E0000490F14518D0B4F80090B9F1000F13D032
:1054F000A168013110D01C60A5888542D8D12588CB
:105500005545D5D1A16811601968124B51601B89AE
:1055100013810020BDE8F087AF42D4D92C68013454
:105520002C46D0D0B5F8029009F1030905EB8905A6
:10553000AF42D4D2C7E705F10804C2E748F20160E0
:10554000BDE8F08748F20460BDE8F087900B0020CA
:10555000B40B0020980B00202DE9F04F89B0039187
:1055600001920493002800F0BB800E46002900F051
:10557000B780002B00F09B81134602F0080503F072
:10558000020A02F0010203F004030178DFF8388414
:105590000292044605933778601C0B46002D3FD0DD
:1055A00018F8012002F00302012A00F049813F2B84
:1055B00000F09C805BDC002B00F034812A2B40F053
:1055C0004681617818F8013003F00303012B00F0E5
:1055D0008481044609E014F8011F18F8013003F033
:1055E0000303012B04BF2031C9B22A29F3D02E2F87
:1055F00000F04581002900F076812F2940F0848158
:10560000BAF1000F00F0A481304609F083FD064690
:10561000002865D021783778601C0B46002DBFD15B
:105620003F2963D012D8002900F0FC802A2940F0DD
:105630000A8161782A290446D9D114F8011F2A2940
:10564000D5D114F8011F2A29F7D0D0E75B2964D0FF
:105650005C2940F0F880029901363A4611B9637826
:10566000BBB90B4604469A423AD1017893E75B2BCB
:1056700053D05C2B40F0EB80029901363A4649B991
:10568000637818F8031001F00301012900F0288164
:1056900013B1A01C002DE5D0044618F8071001F046
:1056A00003010129DFD107F12002DCE7BAF1000F85
:1056B00000F05081A7B1049B03F1FF38019B23F058
:1056C000040502E016F8017F57B143462A463146E9
:1056D0002046FFF741FF012840F053812F2FF1D1E1
:1056E0004FF0010A504609B0BDE8F08F002FF7D007
:1056F0002F2F00F0E7802E2F0BD1059B4BB1039B82
:105700009E42EDD0BAF1000F03D016F8013C2F2BCA
:10571000E6D06178013604463DE7002FE0D02F2F18
:1057200000F0CB80B9463DB118F8073003F0030311
:10573000012B08BF07F120090028D1D06178212969
:1057400006D05E2904D000220B468446079204E06E
:105750000122A378079204F1020C069102994FF0FE
:10576000010B4FF0000E0CF101043DB118F80320BD
:1057700002F00302012A04BF2033DBB25D2B20D0EC
:105780002F2B00F08E805C2B0DD171B90CF102042F
:105790009CF801303DB118F8032002F00302012A01
:1057A00004BF2033DBB2002B9AD022782D2A17D0E9
:1057B000994508BF4FF0010E1346A4464FF0000B69
:1057C000D1E7BBF1000FF0D1DDE90613734587D0B7
:1057D000002C85D0631C65D09CF801100136DAE6F8
:1057E00094F801C055B118F80CB00BF0030BBBF1E5
:1057F000010F04BF0CF1200C5FFA8CFCBCF1000F10
:10580000D6D0BCF15D0FD3D0BCF15C0F04F1020225
:1058100021D0994514461278CEDBE145D8BF4FF030
:10582000010EC9E7019BD90601D52F2F52D017F1E0
:10583000000A18BF4FF0010A504609B0BDE8F08FCA
:105840002033DBB2B3E601363A4604460BE70136B5
:105850003A46044621E70029DBD1E21C94F802C055
:105860004DB118F80C4004F00304012C04BF0CF1F6
:10587000200C5FFA8CFCBCF1000FCAD130E7059B0D
:10588000002B3FF4B7AE039B9E423FF429AFBAF121
:10589000000F3FF4AFAE16F8013C2F2B7FF4AAAEF9
:1058A0001EE706995B2F7FF41BAF044696E74FF087
:1058B000030A504609B0BDE8F08FBAF1000F3FF47B
:1058C00031AF0DE7BAF1000F7FF40AAF617801360E
:1058D000044660E64FF0000A04E72031C9B278E6DA
:1058E0002033DBB2D4E6BAF1000F3FF4FBAE019BEC
:1058F000DA06EFD430462F2109F00CFC10F1000A33
:1059000018BF4FF0010AEDE6002D3FF4CFAEBAF11B
:10591000000F38D1049BDFF8B08003F1FF39019B01
:1059200023F0040B05E0FFF717FE012829D116F834
:10593000017F18F8075005F00305012D04BF20373B
:10594000FFB231464B465A462046002FEBD1C7E600
:10595000002DDFD1002F3FF4C3AE049B03F1FF38CD
:10596000019B23F0040504E016F8013F002B3FF4EF
:10597000B7AE43462A4631462046FFF7EDFD0128E3
:10598000F2D08246AEE6049BDFF83C8003F1FF399B
:10599000019B23F0040B01E016F8017F18F8075073
:1059A00005F00305012D04BF2037FFB231464B46F9
:1059B0005A462046002F3FF493AEFFF7CDFD012855
:1059C000DFD12F2FE8D18BE6194401004023FFF7E8
:1059D000C3BD00BF1EF0040F1CBFEFF309800AE037
:1059E000EFF308800549064A884201D8904202D860
:1059F0008D464FF00000034B1847000000000120C7
:105A000000E000202D5A0000BFF34F8F0549064BE0
:105A1000CA6802F4E0621343CB60BFF34F8F00BF4C
:105A2000FDE700BF00ED00E00400FA052DE9F04FAE
:105A300083B08146FCF7AEFDFBF716FD0028FBD1D5
:105A4000444F454B454ADFF83881956AB8F8022043
:105A5000FF1AFF083F0447F00107B9F1000F71D0AA
:105A6000002A41D13D4BDB6ADFF818B1DFF818A1FD
:105A70000024012602E001341A2C12D006FA04F3A5
:105A80002B42F8D05BF82420002AF4D0B8F802307A
:105A9000002BF0D0514638460134FCF723FB1A2C7A
:105AA000ECD1290613D5B8F8023053B92C4B1B683A
:105AB000DB0700D500BE4846FFF7A6FF03B0BDE8F0
:105AC000F08F264B27495A6B3846FCF70BFB2A040C
:105AD000ECD5B8F80230002BE8D0204B22499A6B65
