:1000000000000120B5020000DD020000DF02000058
:10001000E1020000E3020000E50200000000000031
:10002000000000000000000000000000E7020000E7
:10003000E902000000000000EB020000ED020000F9
:1000400015110000EF020000EF020000EF020000B7
:10005000EF020000EF020000EF020000EF020000DC
:10006000EF020000EF020000EF020000EF020000CC
:10007000EF020000EF020000EF020000EF020000BC
:10008000EF020000F50A0000EF020000EF0200009E
:10009000EF020000EF020000EF020000EF0200009C
:1000A000EF020000EF020000EF020000EF0200008C
:1000B000EF020000EF02000000000000000000005E
:1000C000EF020000EF020000EF020000EF0200006C
:1000D000EF020000EF020000EF020000000000004D
:1000E0000000000000000000000000000000000010
:1000F0000000000000000000000000000000000000
:1001000000000000000000000000000000000000EF
:1001100000000000000000000000000000000000DF
:1001200000000000000000000000000000000000CF
:1001300000000000000000000000000000000000BF
:1001400000000000000000000000000000000000AF
:10015000000000000000000000000000000000009F
:10016000000000000000000000000000000000008F
:10017000000000000000000000000000000000007F
:10018000000000000000000000000000000000006F
:10019000000000000000000000000000000000005F
:1001A000000000000000000000000000000000004F
:1001B000000000000000000000000000000000003F
:1001C000000000000000000000000000000000002F
:1001D000000000000000000000000000000000001F
:1001E000000000000000000000000000000000000F
:1001F00000000000000000000000000000000000FF
:1002000010B5054C237833B9044B13B10448AFF350
:1002100000800123237010BD980000200000000022
:100220000416000008B5034B1BB103490348AFF3A4
:10023000008008BD000000009C00002004160000A3
:10024000154B002B08BF134B9D46A3F5803A0021A8
:100250008B460F461348144A121A01F09DF90F4BB2
:10026000002B00D098470E4B002B00D09847002061
:10027000002104000D000D48002802D00C48AFF307
:10028000008001F057F92000290000F075FF01F00F
:100290003DF900BF00000800000001200000000040
:1002A0000000000098000020C001002000000000B5
:1002B000000000000649074A074B9B1A03DD043B78
:1002C000C858D050FBDC00F081FFFFF7B9FF0000F9
:1002D000101600000000002098000020FEE7FEE756
:1002E000FEE7FEE7FEE7FEE7FEE7FEE7FEE7FEE7E6
:1002F00000B585B000230390194601AA44F201001D
:10030000CDE9013300F004F805B05DF804FB00BF4F
:1003100072B6094B1B68DB0700D500BEBFF34F8FD9
:100320000649074BCA6802F4E0621343CB60BFF38F
:100330004F8F00BFFDE700BFF0ED00E000ED00E0F3
:100340000400FA05D0E90223D1E90201994208BF6D
:1003500090422CBF01200020704700BF2DE9F04FD4
:1003600087B0804600F084FB40B1B34AD2E9003147
:1003700013F1807341F10001C2E9003100214046D0
:1003800000F092FBAD4C78B323686BB3AC4B25689F
:100390001B783BB335B3AB4800F096FBA64BAA499C
:1003A000D3E90023D1E9006712EB000943F1000A09
:1003B000BA4508BFB1454846514603D219F180708D
:1003C0004AF10001D5E90223994208BF904280F02A
:1003D0006181013308BFB2F1FF3F03D029469B483A
:1003E00000F0A8FD002323600121404600F05CFBE3
:1003F000002840F0318105A9954800F05BFD38B335
:10040000934D4FF0FF364FF0FF370378012B00F08C
:100410008E80002B00F09380022B0FD1DFF82C92FE
:10042000484600F09BFD30B1C0E90267484600F045
:1004300095FD0028F8D1824B01221A7005A92846A3
:1004400000F068FD05A9284600F034FD0028DCD145
:100450007E4F7C4EDFF8E091384600F085FD0028A5
:100460005AD0D0E90223591C08BFB2F1FF3F5AD03D
:10047000216891B12168D1E902018B4208BF824213
:100480004ED22368D3E90223013308BFB2F1FF3F04
:1004900003D02168384600F04DFD384600F05EFD7F
:1004A000D0E902B305463046039300F00DFBD9E9CD
:1004B0000023DFF894A1121843F1000310461946F7
:1004C000DAE90023994208BF9042039B03D210F15E
:1004D000807041F10001BBEB000263EB010301936B
:1004E0000092DDE90001012871F1000334DB594A73
:1004F000904264D85A464FF496030021304600F0EB
:100500002BFA002855D00D282AD000233846236026
:1005100000F02AFD0028A4D12368002B00F0B6804B
:1005200007B0BDE8F08F384600F018FD94E7416849
:100530002368994249D0454800F01AFD7EE741689A
:10054000D1E90223013308BFB2F1FF3F3FF476AF98
:100550003E4800F0EFFC71E70021304600F098FAC9
:10056000374B1B78002BD0D0304600F0ADFADAE9DB
:100570000023D9E900AB1AEB000A4BF1000B9B45B5
:1005800008BF92455046594603D21AF180704BF18C
:100590000001D5E90223994208BF90421CD20133E1
:1005A00008BFB2F1FF3FB0D02946384600F0C2FC88
:1005B000ABE7236863B1256007B0BDE8F08F304634
:1005C00000F082FA234A024495E70023236035E7CE
:1005D000404600F093F9EEE7002000F039F92B696E
:1005E0002BB94FF0FF324FF0FF33C5E90223002053
:1005F00000F036F9D5E905309847002000F028F9D9
:100600002B69ABB1D5E902ABBBF1FF3F08BFBAF133
:10061000FF3F0DD01AEB03004BF10001C5E90201C9
:10062000002000F01DF92946384600F083FC6CE7F5
:10063000002000F015F968E7B8000020380100201C
:10064000C00000200000002030010020C81500007C
:100650001C010020FFFFB4002548264D00F034FAAD
:10066000254BD3E90067D5E9002316EB000947F1D4
:10067000000A9A4508BF91454846514603D219F1F0
:1006800080704AF10001C5E90001B4E6404600F07F
:1006900039F945E7002000F0DBF82B692BB94FF062
:1006A000FF324FF0FF33C5E90223002000F0D8F8F5
:1006B000D5E905309847002000F0CAF82B699BB1B6
:1006C000D5E90267781C08BFB6F1FF3F0CD0F018DF
:1006D00047F10001C5E90201002000F0C1F82946F8
:1006E000064800F027FC7DE6002000F0B9F879E626
:1006F0000000002030010020B8000020C8150000D4
:1007000010B5134B13491B68134882B0582201934C
:10071000082300F079FB044610B1204602B010BD5A
:100720000E4A0F4801A900F0A5F804460028F4D1AC
:1007300001210B4800F092F901231946094A0848A3
:1007400000F0E4F8084B012220461A7002B010BDF8
:10075000C4150000C40000201C0100205D0300003F
:1007600000000020FFFF7F00C00000208AB130B4ED
:10077000A1F101010368B1FA81F14FF0FF344FF0AC
:10078000FF354909C3E90412C3E90245002030BC22
:1007900070470720704700BF2DE9704B044683B0B7
:1007A000002016460D4600F053F8D4E90223013329
:1007B00008BFB2F1FF3F06D0002000F051F8002042
:1007C00003B0BDE8708B1E4800F07EF91D4A1E4B39
:1007D000D2E90089D3E9002318EB000B49F1000CA2
:1007E0009C4508BF93455846614624D3421941F1C0
:1007F0000003C4E90223002000F032F82369A66157
:1008000003B1256101A9114800F016FB78B100255C
:100810004460057001A90D4800F03CFB0028CFD0D2
:10082000074800F055F9284603B0BDE8708B042056
:1008300003B0BDE8708B1BF180704CF10001D5E76F
:1008400000000020B8000020300100201C01002022
:1008500072B6024A13680133136070473C010020EE
:10086000034A1368013B136003B962B6704700BFC7
:100870003C01002070B41D4C43791D4E04EBC305B0
:1008800046F823202D7975BB03680A88C3F808252C
:1008900090F904308A78002B1DDB03F1604303F5E7
:1008A00061435201D2B283F8002390F90430002B47
:1008B00007DB104903F01F0501225B09AA4041F83C
:1008C0002320437904EBC3020121117144F8330062
:1008D000002070BC7047084903F00F03520119440F
:1008E000D2B20A76E1E7082070BC704740010020D0
:1008F0004801002000E100E0FCEC00E00368012278
:100900001A607047036801225A607047F0B40468A7
:100910004FF480358D40C4F80853066801F1500447
:10092000C6F84853A4000668A4B20027375182B025
:1009300036590468019601F5A87122F07F42019EA4
:1009400044F821200268C2F8445313B10368C3F885
:10095000045302B0F0BC70472DE9F0430E464FF44B
:1009600080370168B740C1F848730168C1F808735F
:100970000168044601EB8600D1F804C5D0F84015A3
:10098000C0F840C506F15005AD002068ADB24FF08B
:10099000000940F8059085B0A1EB0C014059029088
:1009A00021F07F41012922F07F48029A45D0226838
:1009B000D2F80455C2F84473A8EB050222F07F4236
:1009C000012A06F5A87627D0226842F826802068FA
:1009D000D0F80455A8EB0501C3F1FF13013903F565
:1009E0007F4321F07F418B4212D341B1C0F8447361
:1009F00023680020C3F8047305B0BDE8F08308F154
:100A0000010240F826202068D0F804359D42EDD040
:100A10000D2005B0BDE8F08320680F4B08F10102FE
:100A200040F8262043F001034FF480609847206887
:100A3000D0F804359D42D9D0EAE7074A019342F045
:100A400001024FF4806090472268019B42F80590B4
:100A500052590392039AAAE7E015000002680223A4
:100A6000C2F8443311B10268C2F80433704700BFC2
:100A70000368D3F8040100B97047002282B0C3F8BC
:100A80000421D3F804310193019B012002B0704787
:100A90004FF48033026803FA01F1C2F84813036887
:100AA000C3F80813704700BF5031890089B203684A
:100AB000585800B9704700225A5082B05B580193D1
:100AC000019B012002B070470368D3F8040570470A
:100AD00090F90430002B09DB5A09403203F01F0360
:100AE0000121034801FA03F340F82230704700BFA8
:100AF00000E100E0024A034B10681B68184700BF82
:100B0000400100204801002038B51A4C1A4B2268D9
:100B10009888002A07DDFF3A2260C1B2174800F02A
:100B20006BF968B938BD5978DA7B69B1597B8D1A90
:100B300085421ADC5A6999800020587072B10CE025
:100B4000BDE83840FFF7D4BB997B8D18854207DBA1
:100B50001A6999800120587002B105322260DDE7E0
:100B6000811A89B29980C9B2D8E7811889B299806F
:100B7000C9B2D3E7A00100204C0100207C01002075
:100B80004378002B32D082789A422FD2C3786BB34D
:100B9000C3685BB370B51C4C054654220021204647
:100BA00000F0FAFC1422294604F10C0000F0E6FCE7
:100BB000217BEA78AB78EE6884F82010E968A162BE
:100BC0002869606213444FF48071FF22A380218062
:100BD0000E4B84F8212004F1200104F130000C4A6E
:100BE000A660E36200F07CF810B170BD072070478A
:100BF0000123A370A978EB78194404F13000C9B23D
:100C0000BDE8704000F0F8B84C010020E815000085
:100C1000090B00000146014800F096B87C01002055
:100C200038B5037D0446D3B983691BB1984723794E
:100C3000022B13D1E378A2782178206AE5689A42E2
:100C40003CD073BB002948D0C0F80C550023A178D4
:100C5000637023790531022B216114D038BD0178EE
:100C6000036AC268D1B1C3F80C25A178E378CB1A26
:100C700001FB03F109120023053121616370237523
:100C80002379022BEAD1E36922461868FFF784FD35
:100C90000028E3D0BDE83840FFF72ABBC3F8082599
:100CA000E3E7B9B1C0F80855A17811FB03F10912C7
:100CB00001230531216163702375E1E739B1C0F883
:100CC0000855A1780123053121616370D8E7C0F888
:100CD0000C55F6E7C0F80C55E6E7C0F80855B5E73F
:100CE00070B582610B788C6803708B68154AC0E917
:100CF00002334B6803624B7883700546C868E8612D
:100D00000021FFF733FDC8B974B103464FF0A04688
:100D1000032103F5E07214F0010F18BF46F822100A
:100D2000640803F10103F4D129782B6AEA6831B928
:100D3000C3F80825002201236A702B7170BDC3F827
:100D40000C25F7E7210C0000F8B50278C1600223FA
:100D500003710446036A2AB3C3F80C15A368E2784A
:100D6000A078A5692678276A194390424FF00003BE
:100D700063702375A361A160E3682BD0AAB1002E34
:100D800034D0C7F80835A17811FB02F1091201230C
:100D900005312161637023752379022B10D0A56181
:100DA0000020F8BDC3F80815D8E716B3C7F80C350E
:100DB0000023A178637023790531022B2161EED1E4
:100DC000E36922461868FFF7E7FC0028E7D0FFF741
:100DD0008FFAE4E73EB1C7F80835A1780123053161
:100DE00021616370D8E7C7F80C35F6E7C7F80C3512
:100DF000C9E7C7F80835DBE783788B4226BFC170A7
:100E000000200720704700BF99B110B4B2FBF3F483
:100E100003FB1424A4B244B9C0E9001484608281A5
:100E2000C38120465DF8044B704709205DF8044BF0
:100E300070470E20704700BF30B482B050E8013FC9
:100E40009DB2C48925448489A54228BF2D1B0489ED
:100E5000A54202BFBFF32F8F002207E0C5EA0305BA
:100E600040E80154002CE9D14FF001028DF8032035
:100E70000193019B9DF803200B602AB10B88006849
:100E8000184402B030BC704702F0FF03184602B0AD
:100E900030BC70470A884B889A4201D000207047C6
:100EA00050E8012FC2EA024240E80123002BF7D1AB
:100EB0000120704730B482B050E8023F1FFAA3F51A
:100EC000C488A54202BFBFF32F8F00220DE0C48962
:100ED00025448489A54228BF2D1BC3EA054540E867
:100EE0000254002CE8D14FF001028DF80320019349
:100EF000019B9DF803200B602AB14B8800681844C1
:100F000002B030BC704702F0FF03184602B030BC9C
:100F1000704700BF0A884B889A4201D00020704772
:100F200050E8022FC2EA224240E80223002BF7D108
:100F30000120704770B54468064620680D4618B910
:100F400008E02468206828B1B3682946984700283B
:100F5000F7D120682860256070BD00BF436818681D
:100F600008B102681A60704743681868704700BF8C
:100F70004068036873B1994203D107E0814204D00D
:100F8000034618680028F9D1704718460B680360BB
:100F9000012070471846704710B568B90E4CA36819
:100FA000012262703BB1D3E900230020A260984780
:100FB000A368002BF7D110BD0128FCD1064C236992
:100FC000A070002BF7D0D3E90023012022619847BD
:100FD0002369002BF7D110BDA401002038B50C4CBB
:100FE000237843B185250B4BD3F800340BB1012393
:100FF000A370284638BD08486360A3602361E3609E
:1010000000F03AF8054600F043F801232370EAE7C0
:10101000A401002000000140990F000038B5154DD3
:10102000AB78044673B110B14368012098470020A3
:10103000FFF70EFCEB680133EB600020BDE83840A1
:10104000FFF70EBC03F0FF00FFF702FC64B12A6952
:1010500042B1944208D0134601E09C4204D01B6880
:10106000002BFAD122602C61EB68002BE2D100F05A
:1010700021F8DFE7A4010020044A137923B90121F4
:10108000106091801846704785207047B801002095
:10109000074B1A68D20704D4C02283F80023012228
:1010A0001A604FF080430122C3F81825704700BF33
:1010B00000E100E010B41349134B144A002008600B
:1010C00083B0096801914FF080410220019CC1F872
:1010D0000403D86840F08071D960146844F00103BB
:1010E0001360516853685B1AB3F50A5FFAD3064977
:1010F000074B14600122C8601A6003B05DF8044B0E
:10110000704700BF04010040F0ED00E0001000E077
:101110000800004010B5154B1A6882B062B100217A
:10112000134A19601B68507900934FF080410123E6
:10113000009CC1F80833A8B10E4B1A6882B1002296
:101140001A601B6801934FF080420221084B0198FE
:10115000C2F808131B68012002B0BDE81040184710
:1011600002B010BD116853718847E5E700010040E7
:10117000B80100200401004030B587B0FFF72EFF12
:10118000B0B90020FFF74AFFFFF7BAFAC8B90E4D11
:101190000FCD01AC0FC42B68236001A8FFF7F0FC52
:1011A00060B94FF4F010FFF735FD20B920BFFDE71F
:1011B000FFF79EF8E5E7FFF79BF8F7E7FFF798F8EA
:1011C000EFE7FFF795F8E2E7EC15000030B4B64B17
:1011D0001B68591C04BFB54B1B78062B05D1B44BBB
:1011E000B44A1B68C3F304231360B04B1B78062B6F
:1011F00000F0FB80AC4B1B685A1C04BFAB4B1B7848
:10120000062B05D1AC4BAD4A1B68C3F342331360C8
:10121000A64B1B78062B00F0DB80A34B1B685D1CE4
:1012200004BFA24B1B78062B08D14FF0804300224D
:10123000C3F80C21C3F81021C3F838259B4B1B7849
:10124000062B00F0AF80984B1A68541C24D09C4B9E
:10125000062A1B6828D09B4AD2F8883043F47003D2
:10126000C2F88830BFF34F8FBFF36F8F8E4B1B6870
:10127000062B00F088804FF01023D3F80022002ABC
:10128000C0F2E080D3F80432002BC0F2DB808E4B3A
:101290008E4A1A6030BC704784498D4B09781B68B0
:1012A0000629D8D1C3F30313033B012B48D94FF0D0
:1012B0008052884BD2F80414C3F82015D2F80814D1
:1012C000C3F82415D2F80C14C3F82815D2F810145A
:1012D000C3F82C15D2F81414C3F83015D2F818142A
:1012E000C3F83415D2F81C14C3F84015D2F82014F2
:1012F000C3F84415D2F82414C3F84815D2F82814BA
:10130000C3F84C15D2F82C14C3F85015D2F8301489
:10131000C3F85415D2F83414C3F86015D2F8381451
:10132000C3F86415D2F83C14C3F86815D2F8401419
:101330005D48C3F86C15D2F844140268C3F8701500
:10134000501C7AD0062A86D1634B574A1B686349E2
:10135000126803F04F030B60511C51D0062A7FF432
:101360007AAF4FF08043D3F80034DA0754D4544BAB
:101370001B68033B022B7FF66EAF594A136843F498
:101380008063136067E74E4B1B68033B032B7FF6BC
:1013900072AF4FF010224FF08043D2F80822C3F80A
:1013A000582568E74A4B1B68C3F30313032B7FF4EC
:1013B0004AAF4C4D4C482B604C4C4D494D4A05238F
:1013C0000360012500203F232560086013603AE791
:1013D0003F4B1B68C3F30313032B7FF41EAF464A36
:1013E000D36823F08073D36017E7394B1B68C3F3CE
:1013F0000313032B7FF4FEAE404B414A1A60F9E61B
:101400002A4B1B78062B7FF426AF4FF08043D3F88E
:101410000034DB077FF51FAF234B1B684FF0804282
:101420006FF00101062BC2F800147FF414AF244BB7
:101430001B68033B022BA0D80DE71C4B1B78062B27
:1014400082D008E72F4A0123C2F80435D2F80034CD
:10145000002BFBD04FF0102315212A4AC3F80012AD
:10146000D2F80034002BFBD04FF010231521254A71
:10147000C3F80412D2F80034002BFBD0002321491A
:10148000C2F80435D1F80034002BFBD0BFF34F8FE6
:101490000C491D4BCA6802F4E0621343CB60BFF3F2
:1014A0004F8F00BFFDE700BF30010010E00F00F0DC
:1014B0002403001040350140440200103C05004068
:1014C0003401001000ED00E0280000200090D0035F
:1014D000E80F00F000C0004058020010E40E004089
:1014E0003C170040A00500401056004088560040C0
:1014F0001856004014560040F0ED00E074C007405C
:101500000DF0ADBA00E001400400FA0508B5074B44
:10151000044613B10021AFF30080054B1868836ABD
:1015200003B19847204600F03FF800BF00000000DC
:101530000016000070B50D4D0D4C641BA410002664
:10154000A64209D10B4D0C4C00F030F8641BA410DE
:101550000026A64205D170BD55F8043B98470136D8
:10156000EEE755F8043B98470136F2E78C0000207F
:101570008C0000208C000020900000200A44914242
:1015800000F1FF3300D1704710B511F8014B03F89B
:10159000014F9142F9D110BD02440346934200D15C
:1015A000704703F8011BF9E7FEE700BFF8B500BF7D
:1015B000F8BC08BC9E467047F8B500BFF8BC08BC34
:1015C0009E4670470100060000000000B4000020A5
:1015D00045030000000000000000000000000000C3
:1015E0000338FDD8704700000800002000DC00052B
:1015F000000001000000000000001E00000000507C
:081600002C0000200000000096
:0816080038ECFF7F0100000037
:101610000010014011000400000000000000000064
:10162000FFFFFFFFFFFFFFFF0000000000000000C2
:1016300000000000000000000090D0030000000047
:10164000000000000000000000000000000000009A
:10165000000000000000000000000000000000008A
:10166000000000000000000000000000000000007A
:10167000000000000000000000000000000000006A
:10168000000000000000000000000000000000005A
:101690000000000000000000000000002502000023
:0416A0000102000043
:04000003000002B542
:00000001FF
